:020000040000fa
:080000000002040000000000f2
:020000040000fa
:04000800f0050000ff
:020000040000fa
:04000c00f0050000fb
:020000040000fa
:04001000f0050000f7
:020000040000fa
:04001400f0050000f3
:020000040000fa
:04001800f0050000ef
:020000040000fa
:04001c00f0050000eb
:020000040000fa
:04002000f0050000e7
:020000040000fa
:04002400f0050000e3
:020000040000fa
:04002800f0050000df
:020000040000fa
:04002c00f0050000db
:020000040000fa
:04003000f0050000d7
:020000040000fa
:04003400a80200001e
:020000040000fa
:04003800f0050000cf
:020000040000fa
:04003c00f0050000cb
:020000040000fa
:04004000f0050000c7
:020000040000fa
:04004400f0050000c3
:020000040000fa
:04004800f0050000bf
:020000040000fa
:04004c00f0050000bb
:020000040000fa
:04005000f0050000b7
:020000040000fa
:04005400f0050000b3
:020000040000fa
:04005800f0050000af
:020000040000fa
:04005c00f0050000ab
:020000040000fa
:04006000f0050000a7
:020000040000fa
:04006400f0050000a3
:020000040000fa
:04006800f00500009f
:020000040000fa
:04006c00f00500009b
:020000040000fa
:04007000f005000097
:020000040000fa
:04007400f005000093
:020000040000fa
:04007800f00500008f
:020000040000fa
:04007c00f00500008b
:020000040000fa
:04008000f005000087
:020000040000fa
:04008400f005000083
:020000040000fa
:04008800f00500007f
:020000040000fa
:04008c00f00500007b
:020000040000fa
:04009000f005000077
:020000040000fa
:04009400f005000073
:020000040000fa
:04009800f00500006f
:020000040000fa
:04009c00f00500006b
:020000040000fa
:0400a000f005000067
:020000040000fa
:0400a400f005000063
:020000040000fa
:0400a800f00500005f
:020000040000fa
:0400ac00f00500005b
:020000040000fa
:0400b000f005000057
:020000040000fa
:0400b400f005000053
:020000040000fa
:0400b800f00500004f
:020000040000fa
:0400bc00f00500004b
:020000040000fa
:0400c000f005000047
:020000040000fa
:0400c400f005000043
:020000040000fa
:0400c800f00500003f
:020000040000fa
:0400cc00f00500003b
:020000040000fa
:0400d000f005000037
:020000040000fa
:0400d400f005000033
:020000040000fa
:0400d800f00500002f
:020000040000fa
:0400dc00f00500002b
:020000040000fa
:0400e000f005000027
:020000040000fa
:0400e400f005000023
:020000040000fa
:0400e800f00500001f
:020000040000fa
:0400ec00f00500001b
:020000040000fa
:0400f000f005000017
:020000040000fa
:0400f400f005000013
:020000040000fa
:0400f800f00500000f
:020000040000fa
:0400fc00f00500000b
:020000040000fa
:04010000f005000006
:020000040000fa
:04010400f005000002
:020000040000fa
:04010800f0050000fe
:020000040000fa
:04010c00f0050000fa
:020000040000fa
:04011000f0050000f6
:020000040000fa
:04011400f0050000f2
:020000040000fa
:04011800f0050000ee
:020000040000fa
:04011c00f0050000ea
:020000040000fa
:04012000f0050000e6
:020000040000fa
:04012400f0050000e2
:020000040000fa
:04012800f0050000de
:020000040000fa
:04012c00f0050000da
:020000040000fa
:04013000f0050000d6
:020000040000fa
:04013400f0050000d2
:020000040000fa
:04013800f0050000ce
:020000040000fa
:04013c00f0050000ca
:020000040000fa
:04014000f0050000c6
:020000040000fa
:04014400f0050000c2
:020000040000fa
:04014800f0050000be
:020000040000fa
:04014c00f0050000ba
:020000040000fa
:04015000f0050000b6
:020000040000fa
:04015400f0050000b2
:020000040000fa
:04015800f0050000ae
:020000040000fa
:04015c00f0050000aa
:020000040000fa
:04016000f0050000a6
:020000040000fa
:04016400f0050000a2
:020000040000fa
:04016800f00500009e
:020000040000fa
:04020800f0050000fd
:020000040000fa
:04020c00f0050000f9
:020000040000fa
:04021000f0050000f5
:020000040000fa
:04021400f0050000f1
:020000040000fa
:04021800f0050000ed
:020000040000fa
:04021c00f0050000e9
:020000040000fa
:04022000f0050000e5
:020000040000fa
:04022400f0050000e1
:020000040000fa
:04022800f0050000dd
:020000040000fa
:04022c00f0050000d9
:020000040000fa
:04023000f0050000d5
:020000040000fa
:04023400f0050000d1
:020000040000fa
:04023800f0050000cd
:020000040000fa
:04023c00f0050000c9
:020000040000fa
:04024000f0050000c5
:020000040000fa
:04024400f0050000c1
:020000040000fa
:04024800f0050000bd
:020000040000fa
:04024c00f0050000b9
:020000040000fa
:04025000f0050000b5
:020000040000fa
:04025400f0050000b1
:020000040000fa
:04025800f0050000ad
:020000040000fa
:04025c00f0050000a9
:020000040000fa
:04026000f0050000a5
:020000040000fa
:04026400f0050000a1
:020000040000fa
:04026800f00500009d
:020000040000fa
:04026c00f005000099
:020000040000fa
:04027000f005000095
:020000040000fa
:04027400f005000091
:020000040000fa
:04027800f00500008d
:020000040000fa
:04027c00f005000089
:020000040000fa
:04028000f005000085
:020000040000fa
:04028400f005000081
:020000040000fa
:04028800f00500007d
:020000040000fa
:04028c00f005000079
:020000040000fa
:04029000f005000075
:020000040000fa
:04029400f005000071
:020000040000fa
:04029800f00500006d
:020000040000fa
:04029c00f005000069
:020000040000fa
:0402a000f005000065
:020000040000fa
:0402a400f005000061
:020000040000fa
:0402a800f00500005d
:020000040000fa
:0402ac00f005000059
:020000040000fa
:0402b000f005000055
:020000040000fa
:0402b400f005000051
:020000040000fa
:0402b800f00500004d
:020000040000fa
:0402bc00f005000049
:020000040000fa
:0402c000f005000045
:020000040000fa
:0402c400f005000041
:020000040000fa
:0402c800f00500003d
:020000040000fa
:0402cc00f005000039
:020000040000fa
:0402d000f005000035
:020000040000fa
:0402d400f005000031
:020000040000fa
:0402d800f00500002d
:020000040000fa
:0402dc00f005000029
:020000040000fa
:0402e000f005000025
:020000040000fa
:0402e400f005000021
:020000040000fa
:0402e800f00500001d
:020000040000fa
:0402ec00f005000019
:020000040000fa
:0402f000f005000015
:020000040000fa
:0402f400f005000011
:020000040000fa
:0402f800f00500000d
:020000040000fa
:0402fc00f005000009
:020000040000fa
:04030000f005000004
:020000040000fa
:04030400f005000000
:020000040000fa
:04030800f0050000fc
:020000040000fa
:04030c00f0050000f8
:020000040000fa
:04031000f0050000f4
:020000040000fa
:04031400f0050000f0
:020000040000fa
:04031800f0050000ec
:020000040000fa
:04031c00f0050000e8
:020000040000fa
:04032000f0050000e4
:020000040000fa
:04032400f0050000e0
:020000040000fa
:04032800f0050000dc
:020000040000fa
:04032c00f0050000d8
:020000040000fa
:04033000f0050000d4
:020000040000fa
:04033400f0050000d0
:020000040000fa
:04033800f0050000cc
:020000040000fa
:04033c00f0050000c8
:020000040000fa
:04034000f0050000c4
:020000040000fa
:04034400f0050000c0
:020000040000fa
:04034800f0050000bc
:020000040000fa
:04034c00f0050000b8
:020000040000fa
:04035000f0050000b4
:020000040000fa
:04035400f0050000b0
:020000040000fa
:04035800f0050000ac
:020000040000fa
:04035c00f0050000a8
:020000040000fa
:04036000f0050000a4
:020000040000fa
:04036400f0050000a0
:020000040000fa
:04036800f00500009c
:020000040000fa
:100400004f8020000eff20000e0188000000000039
:10041000000020000000e000020032000001200087
:10042000200288000c000700009a20000100200034
:1004300011000700000020000000e0000200320070
:1004400000000200000000006e0302000000000037
:100450000040da000000fe004440a90060052000d2
:100460000000e0000300320000002000a00188002e
:100470004440a80000000600910188008000780038
:100480000000eb0015003700e280400032a0b4000d
:100490009101ba00e280400032a0b4009102ba009b
:1004a000e280400032a0b4000002eb00472bde00e7
:1004b000f507b200602ce10004003a000059eb009f
:1004c0008301e900fdff3e00040037006128e100e0
:1004d000010032000082eb000b00070011c3ba00dc
:1004e0001101ba000604e00003003a000200e00037
:1004f000e5ff3a0000000600f607b200960188000a
:1005000082007800f5ff37003159ba008301e90015
:100510000c0032002159ba008301e90008003200c2
:100520000400e00003003a00e280400032a0b40082
:10053000f5ff370011d9ba008301e900faff3a004c
:100540008100e800e180400032a0b4000000060015
:1005500000a0fe003600f800849fbe00869fbe000b
:100560003400f80004002000a40188000200fa0012
:1005700000408000114080003f020700000f78001b
:100580009e007800803e20000001780011000900e4
:100590008200d80080004000a09428000080400025
:1005a00090007800000e20000100700050168800b6
:1005b0007000200058000700000f2000501688002f
:1005c0009e007800803e20000001780011000900a4
:1005d0008200d8008000fd008000780040062000e6
:1005e00000017800110009008200d800800040005e
:1005f000a09428000080400090007800000d2000aa
:1006000001007000501688007000200042000700b2
:10061000000f2000501688009e0078004006200041
:1006200000017800110009008200d8008000fd0060
:1006300080007800a000200000017800110009006f
:100640008200d80080004000a09428000080400074
:1006500090007800000b200081007000904c840016
:100660000080600050168800700020002a000700fb
:10067000000f2000501688009e007800a000200087
:1006800000017800110009008200d8008000fd0000
:1006900080004000a0942800008040009000780076
:1006a0000007200001007000501688007000200034
:1006b00019000700000f2000501688008460a90070
:1006c0000080fa003400f9004f03be004f02be0064
:1006d0003600f9000080fe00004006000000fa002d
:1006e0001f000700770007007900070036010700a8
:1006f00038010700fbff37000200fa00004f7800c6
:100700001e4fe9001e4078000004e000fcff3a00a4
:100710000080fa00000006000400fa0010079800ac
:1007200010c0b300004f7800a0cfb300f2ff070065
:100730001e4fe9001e4078000004e000faff3a0076
:100740001e0090000000e900100798001e009000b5
:100750000000e000f2ff3a000080fa00000006000e
:100760000000fa0005000700120007001b00070048
:100770002e0007000080fa00000006000000fa00ca
:10078000103a800000c0a10000d0a00000e0a1004d
:10079000103a8800103a80000080a1000090a0006c
:1007a00000a0a100103a880042e7a8000080fa00eb
:1007b000000006000000fa0030f02000001688005b
:1007c000c222ef00c822ef00ca22ef00d022ef00c1
:1007d000d222ef000080fa00000006000000fa00bc
:1007e00005a1a9000421a900200880000040a10063
:1007f0000050a100200888000021ef00a0aa2a00d4
:10080000100888002005800000c0a00000d0a100d2
:1008100000e0a100200588008460a9009460a80081
:1008200005e1a8000080fa00000006000000fa00c0
:100830004023a9004043a800001a80000040a00007
:100840000050a0000060a0000070a100001a880005
:10085000001a80000080a1000090a100001a88000a
:100860004143a8004223a900111a800030f82f004c
:1008700000806000c001b300101a880043a3a900e3
:10088000101a800000e0a10000f0a100101a8800fa
:10089000f0c3b30044e3b700211a8000f00f2e002c
:1008a00000806000201a880045e3a9004823ef007b
:1008b00030002000801a880041e3a8000080fa0080
:1008c000000006000000fa000080fa0000000600a8
:1008d0001c00fa00889fbe008a9fbe000f057800aa
:1008e0000f0078008005780020c3b300604f9800a7
:1008f0006e4890000000fb000000e900000f980027
:100900006e4890000000fb004200dd000000e8009f
:100910000000e8000000d100800040000f007800d7
:10092000818747000000e8000000d100000040007f
:10093000100f980010002000401a88006000b800d6
:1009400010079800210798000000eb00000f7800c6
:1009500016003700101880008000eb006a010700c5
:100960009e0990001e0178004211dd0002814100c5
:100970000089be009e0890001e0078004200dd0045
:10098000008040001000be000001be001e0090006c
:10099000ae0090009500070010079800210798000e
:1009a00050c0b30054ff07001e0fe8006e489000cf
:1009b0000000fb009e0f5000e6ff3c001e08900068
:1009c0001001be0032079800430798001e089000ef
:1009d0001001be0052079800630798000000eb006a
:1009e000000f78002b0037009e0890001e00780052
:1009f0004200dd00008040001000be0018c0b300bf
:100a00003e019000ce019000190107000000e000b7
:100a100001003c000044eb000804e0000700320045
:100a20009e0890001e0078004200dd00008040001b
:100a30001001be0032079800430798009e089000fe
:100a40001e0078004200dd00008040001000be0063
:100a500018c0b3005e019000ee0190000201070093
:100a60000000e000010035000044eb000804e00055
:100a7000070032009e0890001e0078004200dd0052
:100a8000008040001001be005207980063079800e4
:100a90001e0fe8006e4890000000fb009e0f500003
:100aa000d1ff3c003e019000ce0190001e0090005e
:100ab000ae0090004c0007005e019000ee01900037
:100ac000490007000004be006e4890000000fb00d3
:100ad0000080e900cf80de00080107000001be00b1
:100ae0000800be009e00070010079800210798002c
:100af000a04c8400b14c84001e019000ae01900017
:100b0000560107000002be00c04c8400d14c840096
:100b10000001be000400be0091000700200f9800f5
:100b2000310f9800e04c8400f14c84000001be00bd
:100b30002e089000be08900089000700400f980022
:100b4000510f980002002000832c24004e089000d2
:100b5000de089000820007000200200003f8230056
:100b60002100070082042500c3b723007c00070092
:100b7000020020000312240038010700be00070015
:100b800080007800007122008001780011000900c7
:100b90008300d8008000fd00cf80de00d700070072
:100ba0000040880011408800800c2000dafe070019
:100bb0008b0778008a0778004f05be004f04be00ff
:100bc0000080fa00000006000000fa000080fa0031
:100bd000000006000000fa000080fa000000060095
:100be0000040da000000fe0003f0a200889fbe0073
:100bf0008a9fbe008c1f78000001070007013300a8
:100c00006450e1004f0032006420e10052003200e5
:100c100003826c0007003b000905d0000306d000ea
:100c2000820f54000c065d00020039000200320001
:100c300089017800030678008582550004003d0094
:100c40000003fd008103fd008502ea008b85420060
:100c5000840f720002003b0060001000e08018006a
:100c60006011b8000005eb007a28e1000a003900a5
:100c700006007800c75ddd00f707b20087807500c9
:100c80002d003700828171000a0178006105600043
:100c90008180d1000080d3008502e900f9ff3b008c
:100ca000060440008784480002003b0060041400f2
:100cb000e0841c000988a300070032008a817100cb
:100cc00082817100610164008904d1000884d3002d
:100cd0008b05e800170037000978a30013003a00dd
:100ce0000b00e000130034008b05e9000804440009
:100cf00089844c000a4474000978a3000d003a006e
:100d00000b00e000070034008b05e90008044400f4
:100d100089844c0001003a000b0020000978a300f0
:100d2000f7ff32000001eb00020037008281710002
:100d30000a017800760007000cf0a70001f0a0007f
:100d4000bf0037006420e10002003a00838f6c008e
:100d5000bf0033000801be000200be00b80037002b
:100d6000889fbe008a9fbe008c1f7800a3000700ea
:100d7000aa00330003866c006450e1002e003200ac
:100d80006420e100330032006150e1002f003200a6
:100d90006120e1003100320085855500eb07b0008d
:100da0000900200008042000050037000804440062
:100db00089844c000a0031000603430087834b00fe
:100dc0000001530081815b00f8ff33000203be0085
:100dd0000800a0000804440089844c00f6ff390094
:100de000c639dd00830173000100320013002000ca
:100df0008904d1000884d3000998a30005003200bb
:100e00000800a7000300a0008904d1000884d300d3
:100e10008b05e8008904d1000884d3000001eb00b1
:100e20000281d2003a00070001f0a1000cf0a700f7
:100e300001f0a000820037006420e100840032004d
:100e40000801be000200be00f7ff37006120e1008c
:100e50007f0032006000b800f3ff37000000200080
:100e600001f82700f0ff370014002000af00370022
:100e7000f4ff2f00ad0037000001be004a0007005c
:100e80000470a70003f0a1006509b100160032004c
:100e90000d0035006828e10006003500f0ff2f0046
:100ea000f1ff27000300e00013003b0001002800d1
:100eb0000000050000004000818048008502e90034
:100ec000fcff3a0008003700f88f420002003c00a7
:100ed0008000eb00000005008100d1000080d300fd
:100ee0008502e800fcff3a000300e00002003b003e
:100ef00060001000e0801800000006004f89de004e
:100f000082017800a40037006011b800b2003700f9
:100f100081002000618055000b003d000b00200087
:100f200061fe2f000100e1001d003400828171008c
:100f3000610164008904d1000884d3000000e80046
:100f4000faff3a00710020006100640003007000a5
:100f5000020060000900320061044400e0844c009b
:100f60000988a500050032008b05e8006808e1004b
:100f700002003a008904d1000884d300f20f200057
:100f80000258e10005003d00c75ddd00f907b20031
:100f90008980750008007800000006000bf8270023
:100fa0008b00780000000500c70ade00f107b200e0
:100fb000f50fb20008003200e1cf4200020032001b
:100fc0000170a00024000500810f700001003200b4
:100fd0000408050044000500810f700002003a007b
:100fe000140005008502e9000000400081c04800af
:100ff000fcff3b000170a000240005000004be00bf
:10100000e9ff07000003be000405be000200be00a9
:10101000e5ff0700844f7500000006000200be00d7
:101020006450e100050036006420e1000200360053
:101030000968a30001003a000800be000160a0009a
:101040004f0678004f05be004f04be0000000600aa
:10105000f0ff2f00f1ff2700f9ff3700889fbe0047
:101060008a9fbe008c1f7800e4ff0700ebff33006f
:1010700003866c006450e100240032006420e1002b
:10108000270032006150e100220032006120e100bf
:10109000210032008b854200eb07b1000134b8001b
:1010a000003ab8000804420089844a00013ab800b6
:1010b0000030b8008880400009014a000400330075
:1010c0000000400081804800020149008b05e900d2
:1010d000c909dd0083017000010032001300200007
:1010e000c814de004814dd004709de001200b2001b
:1010f000c808de000884700085ff070001f0a10029
:101100000cf0a70001f0a000cdff37006120e10046
:10111000cfff32000801be000200be00f7ff37001b
:101120006150e100fcff3a00c9ff3700889fbe0014
:101130008a9fbe00841f7800b0ff07004f00780030
:1011400011003300f0ff2f00838f6c0006003b007e
:10115000040565000a00a7000800370009f0a60092
:101160001000200008003700820f5400838f5c00bd
:10117000030039001000200001003e0000002000a4
:1011800009f0a7000000ea004f05be004f04be00b2
:101190000000e00000000600881f780003047800cb
:1011a0000300e00007003d0060001000e080180030
:1011b00060011900e081190002003b0001f02d00e0
:1011c000030037000400070008f0a70001f0a000aa
:1011d0004f04780000000600889fbe008a9fbe0072
:1011e0000082700004027100048271002600320047
:1011f0000004be000200be006011b8006b092000b0
:10120000950220000182cf000a0039000541b1009b
:101210000082cf00070039000541b1000982cf00ec
:10122000040039000541b1000882cf0001003900f7
:101230000541b10005425200120032000a003b0095
:1012400082817100610164008100d1000080d300bf
:101250008984d3000884d3008b05e8000442e800a9
:10126000f7ff3a00070037000804440089844c0067
:1012700000004800818048008b05e9000442e90035
:10128000f9ff3a0022ff07004f05be004f04be00e1
:041290000000060054
:020000040000fa
:1012940000c0000000f9000000a4000000b000003d
:1012a40000990000009200000082000000d80000b5
:1012b400008000000090000000880000008300000f
:1012c40000a7000000a1000000860000008e0000be
:1012d40000c200000089000000cf000000e100000f
:1012e4000085000000c7000000aa000000ab000059
:1012f40000a30000008c00000098000000af000074
:10130400009200000087000000e30000008100005c
:101314000095000000c900000091000000b6000024
:10132400ff7f000033330000533a00000000000048
:0c133400e04000006f120000833a00004f
:020000040000fa
:10134000000800000400000000000000a809800060
:020000040000fa
:041350000000000099
:020000040000fa
:0200000401f009
:04000000ffff0000fe
:020000040000fa
:0200000401f009
:04000800ffff0000f6
:020000040000fa
:0200000401f009
:04000c00daff000017
:020000040000fa
:0200000401f009
:04001000b0ff00003d
:020000040000fa
:0200000401f009
:0400140048ff0000a1
:020000040000fa
:0200000401f009
:04001800fcff0000e9
:020000040000fa
:0200000401f009
:04001c00ffff0000e2
:020000040000fa
:0200000401f009
:040020003fff00009e
:00000001FF
