:020000040000fa
:080000000002040000000000f2
:020000040000fa
:04000800a80200004a
:020000040000fa
:04000c00a802000046
:020000040000fa
:04001000a802000042
:020000040000fa
:04001400a80200003e
:020000040000fa
:04001800a80200003a
:020000040000fa
:04001c00a802000036
:020000040000fa
:04002000a802000032
:020000040000fa
:04002400a80200002e
:020000040000fa
:04002800a80200002a
:020000040000fa
:04002c00a802000026
:020000040000fa
:04003000a802000022
:020000040000fa
:04003400a80200001e
:020000040000fa
:04003800a80200001a
:020000040000fa
:04003c00a802000016
:020000040000fa
:04004000a802000012
:020000040000fa
:04004400a80200000e
:020000040000fa
:04004800a80200000a
:020000040000fa
:04004c00a802000006
:020000040000fa
:04005000a802000002
:020000040000fa
:04005400a8020000fe
:020000040000fa
:04005800a8020000fa
:020000040000fa
:04005c00a8020000f6
:020000040000fa
:04006000a8020000f2
:020000040000fa
:04006400a8020000ee
:020000040000fa
:04006800a8020000ea
:020000040000fa
:04006c00a8020000e6
:020000040000fa
:04007000a8020000e2
:020000040000fa
:04007400a8020000de
:020000040000fa
:04007800a8020000da
:020000040000fa
:04007c00a8020000d6
:020000040000fa
:04008000a8020000d2
:020000040000fa
:04008400a8020000ce
:020000040000fa
:04008800a8020000ca
:020000040000fa
:04008c00a8020000c6
:020000040000fa
:04009000a8020000c2
:020000040000fa
:04009400a8020000be
:020000040000fa
:04009800a8020000ba
:020000040000fa
:04009c00a8020000b6
:020000040000fa
:0400a000a8020000b2
:020000040000fa
:0400a400a8020000ae
:020000040000fa
:0400a800a8020000aa
:020000040000fa
:0400ac00a8020000a6
:020000040000fa
:0400b000a8020000a2
:020000040000fa
:0400b400a80200009e
:020000040000fa
:0400b800a80200009a
:020000040000fa
:0400bc00a802000096
:020000040000fa
:0400c000a802000092
:020000040000fa
:0400c400a80200008e
:020000040000fa
:0400c800a80200008a
:020000040000fa
:0400cc00a802000086
:020000040000fa
:0400d000a802000082
:020000040000fa
:0400d400a80200007e
:020000040000fa
:0400d800a80200007a
:020000040000fa
:0400dc00a802000076
:020000040000fa
:0400e000a802000072
:020000040000fa
:0400e400a80200006e
:020000040000fa
:0400e800a80200006a
:020000040000fa
:0400ec00a802000066
:020000040000fa
:0400f000a802000062
:020000040000fa
:0400f400a80200005e
:020000040000fa
:0400f800a80200005a
:020000040000fa
:0400fc00a802000056
:020000040000fa
:04010000a802000051
:020000040000fa
:04010400a80200004d
:020000040000fa
:04010800a802000049
:020000040000fa
:04010c00a802000045
:020000040000fa
:04011000a802000041
:020000040000fa
:04011400a80200003d
:020000040000fa
:04011800a802000039
:020000040000fa
:04011c00a802000035
:020000040000fa
:04012000a802000031
:020000040000fa
:04012400a80200002d
:020000040000fa
:04012800a802000029
:020000040000fa
:04012c00a802000025
:020000040000fa
:04013000a802000021
:020000040000fa
:04013400a80200001d
:020000040000fa
:04013800a802000019
:020000040000fa
:04013c00a802000015
:020000040000fa
:04014000a802000011
:020000040000fa
:04014400a80200000d
:020000040000fa
:04014800a802000009
:020000040000fa
:04014c00a802000005
:020000040000fa
:04015000a802000001
:020000040000fa
:04015400a8020000fd
:020000040000fa
:04015800a8020000f9
:020000040000fa
:04015c00a8020000f5
:020000040000fa
:04016000a8020000f1
:020000040000fa
:04016400a8020000ed
:020000040000fa
:04016800a8020000e9
:020000040000fa
:04020800a802000048
:020000040000fa
:04020c00a802000044
:020000040000fa
:04021000a802000040
:020000040000fa
:04021400a80200003c
:020000040000fa
:04021800a802000038
:020000040000fa
:04021c00a802000034
:020000040000fa
:04022000a802000030
:020000040000fa
:04022400a80200002c
:020000040000fa
:04022800a802000028
:020000040000fa
:04022c00a802000024
:020000040000fa
:04023000a802000020
:020000040000fa
:04023400a80200001c
:020000040000fa
:04023800a802000018
:020000040000fa
:04023c00a802000014
:020000040000fa
:04024000a802000010
:020000040000fa
:04024400a80200000c
:020000040000fa
:04024800a802000008
:020000040000fa
:04024c00a802000004
:020000040000fa
:04025000a802000000
:020000040000fa
:04025400a8020000fc
:020000040000fa
:04025800a8020000f8
:020000040000fa
:04025c00a8020000f4
:020000040000fa
:04026000a8020000f0
:020000040000fa
:04026400a8020000ec
:020000040000fa
:04026800a8020000e8
:020000040000fa
:04026c00a8020000e4
:020000040000fa
:04027000a8020000e0
:020000040000fa
:04027400a8020000dc
:020000040000fa
:04027800a8020000d8
:020000040000fa
:04027c00a8020000d4
:020000040000fa
:04028000a8020000d0
:020000040000fa
:04028400a8020000cc
:020000040000fa
:04028800a8020000c8
:020000040000fa
:04028c00a8020000c4
:020000040000fa
:04029000a8020000c0
:020000040000fa
:04029400a8020000bc
:020000040000fa
:04029800a8020000b8
:020000040000fa
:04029c00a8020000b4
:020000040000fa
:0402a000a8020000b0
:020000040000fa
:0402a400a8020000ac
:020000040000fa
:0402a800a8020000a8
:020000040000fa
:0402ac00a8020000a4
:020000040000fa
:0402b000a8020000a0
:020000040000fa
:0402b400a80200009c
:020000040000fa
:0402b800a802000098
:020000040000fa
:0402bc00a802000094
:020000040000fa
:0402c000a802000090
:020000040000fa
:0402c400a80200008c
:020000040000fa
:0402c800a802000088
:020000040000fa
:0402cc00a802000084
:020000040000fa
:0402d000a802000080
:020000040000fa
:0402d400a80200007c
:020000040000fa
:0402d800a802000078
:020000040000fa
:0402dc00a802000074
:020000040000fa
:0402e000a802000070
:020000040000fa
:0402e400a80200006c
:020000040000fa
:0402e800a802000068
:020000040000fa
:0402ec00a802000064
:020000040000fa
:0402f000a802000060
:020000040000fa
:0402f400a80200005c
:020000040000fa
:0402f800a802000058
:020000040000fa
:0402fc00a802000054
:020000040000fa
:04030000a80200004f
:020000040000fa
:04030400a80200004b
:020000040000fa
:04030800a802000047
:020000040000fa
:04030c00a802000043
:020000040000fa
:04031000a80200003f
:020000040000fa
:04031400a80200003b
:020000040000fa
:04031800a802000037
:020000040000fa
:04031c00a802000033
:020000040000fa
:04032000a80200002f
:020000040000fa
:04032400a80200002b
:020000040000fa
:04032800a802000027
:020000040000fa
:04032c00a802000023
:020000040000fa
:04033000a80200001f
:020000040000fa
:04033400a80200001b
:020000040000fa
:04033800a802000017
:020000040000fa
:04033c00a802000013
:020000040000fa
:04034000a80200000f
:020000040000fa
:04034400a80200000b
:020000040000fa
:04034800a802000007
:020000040000fa
:04034c00a802000003
:020000040000fa
:04035000a8020000ff
:020000040000fa
:04035400a8020000fb
:020000040000fa
:04035800a8020000f7
:020000040000fa
:04035c00a8020000f3
:020000040000fa
:04036000a8020000ef
:020000040000fa
:04036400a8020000eb
:020000040000fa
:04036800a8020000e7
:020000040000fa
:10040000cf8020000eff20000e01880000000000b9
:10041000000020000000e000020032000001200087
:10042000200288000c00070060522000010020001c
:1004300011000700000020000000e0000200320070
:100440000000020000000000fa02020000000000ac
:100450000040da000000fe004440a900e004200053
:100460000000e0000300320000002000a00188002e
:100470004440a80000000600910188008000780038
:100480000000eb0015003700e280400032a0b4000d
:100490009101ba00e280400032a0b4009102ba009b
:1004a000e280400032a0b4000002eb00472bde00e7
:1004b000f507b200602ce10004003a000059eb009f
:1004c0008301e900fdff3e00040037006128e100e0
:1004d000010032000082eb000b00070011c3ba00dc
:1004e0001101ba000604e00003003a000200e00037
:1004f000e5ff3a0000000600f607b200960188000a
:1005000082007800f5ff37003159ba008301e90015
:100510000c0032002159ba008301e90008003200c2
:100520000400e00003003a00e280400032a0b40082
:10053000f5ff370011d9ba008301e900faff3a004c
:100540008100e800e180400032a0b4000000060015
:080550000040da000000fe008b
:020000040000fa
:1005580000c0000000f9000000a4000000b0000086
:1005680000990000009200000082000000d80000fe
:100578000080000000900000008800000083000058
:1005880000a7000000a1000000860000008e000007
:1005980000c200000089000000cf000000e1000058
:1005a8000085000000c7000000aa000000ab0000a2
:1005b80000a30000008c00000098000000af0000bd
:1005c800009200000087000000e3000000810000a6
:1005d8000095000000c900000091000000b600006e
:0c05e80000e00000d0b000007000000037
:020000040000fa
:1005f4000000fa00210007006400070066000700fd
:10060400750007007700070040802000780007008d
:10061400f9ff37000200fa00004f78001e4fe9008e
:100624001e4078000004e000fcff3a000080fa005d
:10063400000006000400fa001007980010c0b30080
:10064400004f7800a0cfb300f2ff07001e4fe9006f
:100654001e4078000004e000faff3a001e009000fb
:100664000000e900100798001e0090000000e00060
:10067400f2ff3a000080fa00000006000000fa00d1
:1006840004000700110007001a0007000080fa00a8
:10069400000006000000fa00103a800000c0a1002b
:1006a40000d0a00000e0a100103a8800103a8000b9
:1006b4000080a1000090a00000a0a100103a8800d2
:1006c40042e7a8000080fa00000006000000fa00db
:1006d40030f0200000168800c222ef00c822ef008c
:1006e400ca22ef00d022ef00d222ef000080fa00ed
:1006f400000006000000fa004023a9004043a800bf
:10070400001a80000040a0000050a0000060a0007b
:100714000070a100001a8800001a80000080a10067
:100724000090a100001a88004143a8004223a900b8
:10073400111a800030f82f00008060000020a00013
:10074400101a880043a3a900101a800000e0a10039
:1007540000f0a100101a8800f0c3b30044e3b7000e
:10076400211a8000f00f2e0000806000201a8800fb
:1007740045e3a9004823ef0030002000801a8800d8
:1007840041e3a8000080fa00000006000000fa001f
:100794000080fa00000006000000fa0010002000ab
:1007a400401a8800010037004003a900001a8000a5
:1007b400610060000000e000fbff3a0010188000b8
:1007c4000040880000408000418020004300070072
:1007d4000080fa00000006000000fa000080fa0021
:1007e400000006000000fa000080fa000000060085
:1007f4000800fa0030079800e2004700522f280052
:1008040003000900b25878000040eb00004f780064
:100814002d0037001e80fb00be00900000804000c9
:1008240090407800114798009e40900000c4b300a7
:1008340080cf5000120036001e4090000080fb0064
:100844007003b10080004000c02a280000804000ee
:10085400900078001e80fb000000470020409000bc
:100864000080fb000100700050168800700020001a
:1008740070ff0700000f2000501688001100370099
:100884001e4090000080fb000003b1008000400087
:10089400c02a280000804000900078001e80fb00e1
:1008a40000004700204090000080fb000100700021
:1008b40050168800700020005eff0700000f200023
:1008c400501688001e4fe8001e407800e34f500089
:1008d400d0ff36000080fa00000006000600fa008f
:1008e40010079800210798001e0090004c00de00bd
:1008f400004f78001e407800e94f50000800360091
:1009040072c3b3009e4041002e009000014878005d
:100914002e0090000000e800200798000700370030
:1009240002c3b3009e4041002e00900001487800ad
:100934002e0090000000e800200798001e009000a0
:100944004880de00004078006f4f60001e40780051
:10095400e94f50000800360072c3b3009e404100c6
:100964002e009000014878002e0090000000e8005e
:10097400200798000700370002c3b3009e404100df
:100984002e009000014878002e0090000000e8003e
:10099400200798001e0090004480de00004078008c
:1009a4006f4f60001e407800e94f50000800360089
:1009b40072c3b3009e4041002e00900001487800ad
:1009c4002e0090000000e800200798000700370080
:1009d40002c3b3009e4041002e00900001487800fd
:1009e4002e0090000000e800200798001e009000f0
:1009f400004078006f4f60001e407800e94f5000bf
:100a04000800360072c3b3009e4041002e009000df
:100a1400014878002e0090000000e80020079800ac
:100a24000700370002c3b3009e4041002e0090002f
:100a3400014878002e0090000000e800200798008c
:080a44000080fa00000006002a
:020000040000fa
:100a4c000a0800000200000002000000f48200000e
:100a5c00000800000a0000000000000036058000bd
:020000040000fa
:040a6c000000000086
:020000040000fa
:0200000401f009
:04000000ffff0000fe
:020000040000fa
:0200000401f009
:04000800ffff0000f6
:020000040000fa
:0200000401f009
:04000c00daff000017
:020000040000fa
:0200000401f009
:04001000b0ff00003d
:020000040000fa
:0200000401f009
:0400140048ff0000a1
:020000040000fa
:0200000401f009
:04001800fcff0000e9
:020000040000fa
:0200000401f009
:04001c00ffff0000e2
:020000040000fa
:0200000401f009
:040020003fff00009e
:00000001FF
