:020000040000fa
:080000000002040000000000f2
:020000040000fa
:04000800e804000008
:020000040000fa
:04000c00e804000004
:020000040000fa
:04001000e804000000
:020000040000fa
:04001400e8040000fc
:020000040000fa
:04001800e8040000f8
:020000040000fa
:04001c00e8040000f4
:020000040000fa
:04002000e8040000f0
:020000040000fa
:04002400e8040000ec
:020000040000fa
:04002800e8040000e8
:020000040000fa
:04002c00e8040000e4
:020000040000fa
:04003000e8040000e0
:020000040000fa
:04003400a80200001e
:020000040000fa
:04003800e8040000d8
:020000040000fa
:04003c00e8040000d4
:020000040000fa
:04004000e8040000d0
:020000040000fa
:04004400e8040000cc
:020000040000fa
:04004800e8040000c8
:020000040000fa
:04004c00e8040000c4
:020000040000fa
:04005000e8040000c0
:020000040000fa
:04005400e8040000bc
:020000040000fa
:04005800e8040000b8
:020000040000fa
:04005c00e8040000b4
:020000040000fa
:04006000e8040000b0
:020000040000fa
:04006400e8040000ac
:020000040000fa
:04006800e8040000a8
:020000040000fa
:04006c00e8040000a4
:020000040000fa
:04007000e8040000a0
:020000040000fa
:04007400e80400009c
:020000040000fa
:04007800e804000098
:020000040000fa
:04007c00e804000094
:020000040000fa
:04008000e804000090
:020000040000fa
:04008400e80400008c
:020000040000fa
:04008800e804000088
:020000040000fa
:04008c00e804000084
:020000040000fa
:04009000e804000080
:020000040000fa
:04009400e80400007c
:020000040000fa
:04009800e804000078
:020000040000fa
:04009c00e804000074
:020000040000fa
:0400a000e804000070
:020000040000fa
:0400a400e80400006c
:020000040000fa
:0400a800e804000068
:020000040000fa
:0400ac00e804000064
:020000040000fa
:0400b000e804000060
:020000040000fa
:0400b400e80400005c
:020000040000fa
:0400b800e804000058
:020000040000fa
:0400bc00e804000054
:020000040000fa
:0400c000e804000050
:020000040000fa
:0400c400e80400004c
:020000040000fa
:0400c800e804000048
:020000040000fa
:0400cc00e804000044
:020000040000fa
:0400d000e804000040
:020000040000fa
:0400d400e80400003c
:020000040000fa
:0400d800e804000038
:020000040000fa
:0400dc00e804000034
:020000040000fa
:0400e000e804000030
:020000040000fa
:0400e400e80400002c
:020000040000fa
:0400e800e804000028
:020000040000fa
:0400ec00e804000024
:020000040000fa
:0400f000e804000020
:020000040000fa
:0400f400e80400001c
:020000040000fa
:0400f800e804000018
:020000040000fa
:0400fc00e804000014
:020000040000fa
:04010000e80400000f
:020000040000fa
:04010400e80400000b
:020000040000fa
:04010800e804000007
:020000040000fa
:04010c00e804000003
:020000040000fa
:04011000e8040000ff
:020000040000fa
:04011400e8040000fb
:020000040000fa
:04011800e8040000f7
:020000040000fa
:04011c00e8040000f3
:020000040000fa
:04012000e8040000ef
:020000040000fa
:04012400e8040000eb
:020000040000fa
:04012800e8040000e7
:020000040000fa
:04012c00e8040000e3
:020000040000fa
:04013000e8040000df
:020000040000fa
:04013400e8040000db
:020000040000fa
:04013800e8040000d7
:020000040000fa
:04013c00e8040000d3
:020000040000fa
:04014000e8040000cf
:020000040000fa
:04014400e8040000cb
:020000040000fa
:04014800e8040000c7
:020000040000fa
:04014c00e8040000c3
:020000040000fa
:04015000e8040000bf
:020000040000fa
:04015400e8040000bb
:020000040000fa
:04015800e8040000b7
:020000040000fa
:04015c00e8040000b3
:020000040000fa
:04016000e8040000af
:020000040000fa
:04016400e8040000ab
:020000040000fa
:04016800e8040000a7
:020000040000fa
:04020800e804000006
:020000040000fa
:04020c00e804000002
:020000040000fa
:04021000e8040000fe
:020000040000fa
:04021400e8040000fa
:020000040000fa
:04021800e8040000f6
:020000040000fa
:04021c00e8040000f2
:020000040000fa
:04022000e8040000ee
:020000040000fa
:04022400e8040000ea
:020000040000fa
:04022800e8040000e6
:020000040000fa
:04022c00e8040000e2
:020000040000fa
:04023000e8040000de
:020000040000fa
:04023400e8040000da
:020000040000fa
:04023800e8040000d6
:020000040000fa
:04023c00e8040000d2
:020000040000fa
:04024000e8040000ce
:020000040000fa
:04024400e8040000ca
:020000040000fa
:04024800e8040000c6
:020000040000fa
:04024c00e8040000c2
:020000040000fa
:04025000e8040000be
:020000040000fa
:04025400e8040000ba
:020000040000fa
:04025800e8040000b6
:020000040000fa
:04025c00e8040000b2
:020000040000fa
:04026000e8040000ae
:020000040000fa
:04026400e8040000aa
:020000040000fa
:04026800e8040000a6
:020000040000fa
:04026c00e8040000a2
:020000040000fa
:04027000e80400009e
:020000040000fa
:04027400e80400009a
:020000040000fa
:04027800e804000096
:020000040000fa
:04027c00e804000092
:020000040000fa
:04028000e80400008e
:020000040000fa
:04028400e80400008a
:020000040000fa
:04028800e804000086
:020000040000fa
:04028c00e804000082
:020000040000fa
:04029000e80400007e
:020000040000fa
:04029400e80400007a
:020000040000fa
:04029800e804000076
:020000040000fa
:04029c00e804000072
:020000040000fa
:0402a000e80400006e
:020000040000fa
:0402a400e80400006a
:020000040000fa
:0402a800e804000066
:020000040000fa
:0402ac00e804000062
:020000040000fa
:0402b000e80400005e
:020000040000fa
:0402b400e80400005a
:020000040000fa
:0402b800e804000056
:020000040000fa
:0402bc00e804000052
:020000040000fa
:0402c000e80400004e
:020000040000fa
:0402c400e80400004a
:020000040000fa
:0402c800e804000046
:020000040000fa
:0402cc00e804000042
:020000040000fa
:0402d000e80400003e
:020000040000fa
:0402d400e80400003a
:020000040000fa
:0402d800e804000036
:020000040000fa
:0402dc00e804000032
:020000040000fa
:0402e000e80400002e
:020000040000fa
:0402e400e80400002a
:020000040000fa
:0402e800e804000026
:020000040000fa
:0402ec00e804000022
:020000040000fa
:0402f000e80400001e
:020000040000fa
:0402f400e80400001a
:020000040000fa
:0402f800e804000016
:020000040000fa
:0402fc00e804000012
:020000040000fa
:04030000e80400000d
:020000040000fa
:04030400e804000009
:020000040000fa
:04030800e804000005
:020000040000fa
:04030c00e804000001
:020000040000fa
:04031000e8040000fd
:020000040000fa
:04031400e8040000f9
:020000040000fa
:04031800e8040000f5
:020000040000fa
:04031c00e8040000f1
:020000040000fa
:04032000e8040000ed
:020000040000fa
:04032400e8040000e9
:020000040000fa
:04032800e8040000e5
:020000040000fa
:04032c00e8040000e1
:020000040000fa
:04033000e8040000dd
:020000040000fa
:04033400e8040000d9
:020000040000fa
:04033800e8040000d5
:020000040000fa
:04033c00e8040000d1
:020000040000fa
:04034000e8040000cd
:020000040000fa
:04034400e8040000c9
:020000040000fa
:04034800e8040000c5
:020000040000fa
:04034c00e8040000c1
:020000040000fa
:04035000e8040000bd
:020000040000fa
:04035400e8040000b9
:020000040000fa
:04035800e8040000b5
:020000040000fa
:04035c00e8040000b1
:020000040000fa
:04036000e8040000ad
:020000040000fa
:04036400e8040000a9
:020000040000fa
:04036800e8040000a5
:020000040000fa
:100400004f8020000eff20000e0188000000000039
:10041000000020000000e000020032000001200087
:10042000200288000c000700a085200001002000a9
:1004300011000700000020000000e0000200320070
:1004400000000200000000006e0302000000000037
:100450000040da000000fe004440a90060052000d2
:100460000000e0000300320000002000a00188002e
:100470004440a80000000600910188008000780038
:100480000000eb0015003700e280400032a0b4000d
:100490009101ba00e280400032a0b4009102ba009b
:1004a000e280400032a0b4000002eb00472bde00e7
:1004b000f507b200602ce10004003a000059eb009f
:1004c0008301e900fdff3e00040037006128e100e0
:1004d000010032000082eb000b00070011c3ba00dc
:1004e0001101ba000604e00003003a000200e00037
:1004f000e5ff3a0000000600f607b200960188000a
:1005000082007800f5ff37003159ba008301e90015
:100510000c0032002159ba008301e90008003200c2
:100520000400e00003003a00e280400032a0b40082
:10053000f5ff370011d9ba008301e900faff3a004c
:100540008100e800e180400032a0b4000000060015
:1005500000a0fe003600f800849fbe00869fbe000b
:100560003400f80004002000a40188000200fa0012
:100570000040800011408000b7010700000f7800a4
:100580009e007800803e20000001780011000900e4
:100590008200d80080004000408028000080400099
:1005a00090007800000e20000100700050168800b6
:1005b0007000200058000700000f2000501688002f
:1005c0009e007800803e20000001780011000900a4
:1005d0008200d8008000fd008000780040062000e6
:1005e00000017800110009008200d800800040005e
:1005f000408028000080400090007800000d20001e
:1006000001007000501688007000200042000700b2
:10061000000f2000501688009e0078004006200041
:1006200000017800110009008200d8008000fd0060
:1006300080007800a000200000017800110009006f
:100640008200d800800040004080280000804000e8
:1006500090007800000b2000810070006042840050
:100660000080600050168800700020002a000700fb
:10067000000f2000501688009e007800a000200087
:1006800000017800110009008200d8008000fd0000
:1006900080004000408028000080400090007800ea
:1006a0000007200001007000501688007000200034
:1006b00019000700000f2000501688008460a90070
:1006c0000080fa003400f9004f03be004f02be0064
:1006d0003600f9000080fe00004006000000fa002d
:1006e0001f0007007700070079000700b20007002d
:1006f000b4000700fbff37000200fa00004f78004b
:100700001e4fe9001e4078000004e000fcff3a00a4
:100710000080fa00000006000400fa0010079800ac
:1007200010c0b300004f7800a0cfb300f2ff070065
:100730001e4fe9001e4078000004e000faff3a0076
:100740001e0090000000e900100798001e009000b5
:100750000000e000f2ff3a000080fa00000006000e
:100760000000fa0005000700120007001b00070048
:100770002e0007000080fa00000006000000fa00ca
:10078000103a800000c0a10000d0a00000e0a1004d
:10079000103a8800103a80000080a1000090a0006c
:1007a00000a0a100103a880042e7a8000080fa00eb
:1007b000000006000000fa0030f02000001688005b
:1007c000c222ef00c822ef00ca22ef00d022ef00c1
:1007d000d222ef000080fa00000006000000fa00bc
:1007e00005a1a9000421a900200880000040a10063
:1007f0000050a100200888000021ef00a0aa2a00d4
:10080000100888002005800000c0a00000d0a100d2
:1008100000e0a100200588008460a9009460a80081
:1008200005e1a8000080fa00000006000000fa00c0
:100830004023a9004043a800001a80000040a00007
:100840000050a0000060a0000070a100001a880005
:10085000001a80000080a1000090a100001a88000a
:100860004143a8004223a900111a800030f82f004c
:1008700000806000c001b300101a880043a3a900e3
:10088000101a800000e0a10000f0a100101a8800fa
:10089000f0c3b30044e3b700211a8000f00f2e002c
:1008a00000806000201a880045e3a9004823ef007b
:1008b00030002000801a880041e3a8000080fa0080
:1008c000000006000000fa000080fa0000000600a8
:1008d0000c00fa0010002000401a8800a0c0b300ed
:1008e00085ff0700101880008000eb00fe00070065
:1008f000008fbe0070428400814284001e01be0051
:100900004e0107000002be0090428400a142840014
:100910000001be000400be008d0007002007980003
:1009200031079800b0428400c14284000001be003b
:100930002e009000be009000850007004007980040
:100940005107980002002000832c24004e009000e4
:10095000de0090007e0007000200200003f8230064
:100960001d00070082042500c3b72300780007009c
:10097000020020000312240030010700b600070027
:100980008000780000712200000178001100090049
:100990008200d8008000fd00cf80de00cf0007007d
:1009a0000040880011408800c01220005aff070054
:1009b0000080fa00000006000000fa000080fa0043
:1009c000000006000000fa000080fa0000000600a7
:1009d0000040da000000fe0003f0a200889fbe0085
:1009e0008a9fbe008c1f7800fc00070003013300c3
:1009f0006450e1004f0032006420e10052003200f8
:100a000003826c0007003b000905d0000306d000fc
:100a1000820f54000c065d00020039000200320013
:100a200089017800030678008582550004003d00a6
:100a30000003fd008103fd008502ea008b85420072
:100a4000840f720002003b0060001000e08018007c
:100a50006011b8000005eb007a28e1000a003900b7
:100a600006007800c75ddd00f707b20087807500db
:100a70002d003700828171000a0178006105600055
:100a80008180d1000080d3008502e900f9ff3b009e
:100a9000060440008784480002003b006004140004
:100aa000e0841c000988a300070032008a817100dd
:100ab00082817100610164008904d1000884d3003f
:100ac0008b05e800170037000978a30013003a00ef
:100ad0000b00e000130034008b05e900080444001b
:100ae00089844c000a4474000978a3000d003a0080
:100af0000b00e000070034008b05e9000804440007
:100b000089844c0001003a000b0020000978a30002
:100b1000f7ff32000001eb00020037008281710014
:100b20000a017800720007000cf0a70001f0a00095
:100b3000bb0037006420e10002003a00838f6c00a4
:100b4000bb0033000801be000200be00b400370045
:100b5000889fbe008a9fbe008c1f78009f00070000
:100b6000a600330003866c006450e1002e003200c2
:100b70006420e100330032006150e1002f003200b8
:100b80006120e1003100320085855500eb07b0009f
:100b90000900200008042000050037000804440074
:100ba00089844c000a0031000603430087834b0010
:100bb0000001530081815b00f8ff33000203be0097
:100bc0000800a0000804440089844c00f6ff3900a6
:100bd000c639dd00830173000100320013002000dc
:100be0008904d1000884d3000998a30005003200cd
:100bf0000800a7000300a0008904d1000884d300e6
:100c00008b05e8008904d1000884d3000001eb00c3
:100c10000281d2003600070001f0a1000cf0a7000d
:100c200001f0a0007e0037006420e1008000320067
:100c30000801be000200be00f7ff37006120e1009e
:100c40007b0032006000b800f3ff37000000200096
:100c500001f82700f0ff37000001be004a0007003e
:100c60000470a70003f0a1006509b100160032006e
:100c70000d0035006828e10006003500f0ff2f0068
:100c8000f1ff27000300e00013003b0001002800f3
:100c90000000050000004000818048008502e90056
:100ca000fcff3a0008003700f88f420002003c00c9
:100cb0008000eb00000005008100d1000080d3001f
:100cc0008502e800fcff3a000300e00002003b0060
:100cd00060001000e0801800000006004f89de0070
:100ce00082017800890037006011b8009700370052
:100cf00081002000618055000b003d000b002000aa
:100d000061fe2f000100e1001d00340082817100ae
:100d1000610164008904d1000884d3000000e80068
:100d2000faff3a00710020006100640003007000c7
:100d3000020060000900320061044400e0844c00bd
:100d40000988a500050032008b05e8006808e1006d
:100d500002003a008904d1000884d300f20f200079
:100d60000258e10005003d00c75ddd00f907b20053
:100d70008980750008007800000006000bf8270045
:100d80008b00780000000500c70ade00f107b20002
:100d9000f50fb20008003200e1cf4200020032003d
:100da0000170a00024000500810f700001003200d6
:100db0000408050044000500810f700002003a009d
:100dc000140005008502e9000000400081c04800d1
:100dd000fcff3b000170a000240005000004be00e1
:100de000e9ff07000003be000405be000200be00cc
:100df000e5ff0700844f7500000006000200be00fa
:100e00006450e100050036006420e1000200360075
:100e10000968a30001003a000800be000160a000bc
:100e20004f0678004f05be004f04be0000000600cc
:100e3000f0ff2f00f1ff2700f9ff3700889fbe0069
:100e40008a9fbe008c1f7800e4ff0700ebff330091
:100e500003866c006450e100240032006420e1004d
:100e6000270032006150e100220032006120e100e1
:100e7000210032008b854200eb07b1000134b8003d
:100e8000003ab8000804420089844a00013ab800d8
:100e90000030b8008880400009014a000400330097
:100ea0000000400081804800020149008b05e900f4
:100eb000c909dd0083017000010032001300200029
:100ec000c814de004814dd004709de001200b2003d
:100ed000c808de000884700085ff070001f0a1004b
:100ee0000cf0a70001f0a000cdff37006120e10069
:100ef000cfff32000801be000200be00f7ff37003e
:100f00006150e100fcff3a00c9ff3700881f7800fc
:100f1000030478000300e00007003d0060001000bb
:100f2000e080180060011900e081190002003b0018
:100f300001f02d00030037000400070008f0a700af
:100f400001f0a0004f04780000000600889fbe005a
:100f50008a9fbe000082700004027100048271004a
:100f6000260032000004be000200be006011b8007e
:100f70006b092000950220000182cf000a00390091
:100f80000541b1000082cf00070039000541b100e2
:100f90000982cf00040039000541b1000882cf006a
:100fa000010039000541b100054252001200320033
:100fb0000a003b0082817100610164008100d10060
:100fc0000080d3008984d3000884d3008b05e80017
:100fd0000442e800f7ff3a00070037000804440025
:100fe00089844c0000004800818048008b05e9009e
:100ff0000442e900f9ff3a003dff07004f05be003b
:081000004f04be0000000600d1
:020000040000fa
:1010080000c0000000f9000000a4000000b00000cb
:1010180000990000009200000082000000d8000043
:10102800008000000090000000880000008300009d
:1010380000a7000000a1000000860000008e00004c
:1010480000c200000089000000cf000000e100009d
:101058000085000000c7000000aa000000ab0000e7
:1010680000a30000008c00000098000000af000002
:10107800009200000087000000e3000000810000eb
:101088000095000000c900000091000000b60000b3
:10109800ff7f000033330000533a000000000000d7
:0c10a800e04000006f120000833a0000de
:020000040000fa
:1010b4000008000004000000000000006208800036
:020000040000fa
:0410c4000000000028
:020000040000fa
:0200000401f009
:04000000ffff0000fe
:020000040000fa
:0200000401f009
:04000800ffff0000f6
:020000040000fa
:0200000401f009
:04000c00daff000017
:020000040000fa
:0200000401f009
:04001000b0ff00003d
:020000040000fa
:0200000401f009
:0400140048ff0000a1
:020000040000fa
:0200000401f009
:04001800fcff0000e9
:020000040000fa
:0200000401f009
:04001c00ffff0000e2
:020000040000fa
:0200000401f009
:040020003fff00009e
:00000001FF
