:020000040000fa
:080000000002040000000000f2
:020000040000fa
:040008001c090000cf
:020000040000fa
:04000c001c090000cb
:020000040000fa
:040010001c090000c7
:020000040000fa
:040014001c090000c3
:020000040000fa
:040018001c090000bf
:020000040000fa
:04001c001c090000bb
:020000040000fa
:040020001c090000b7
:020000040000fa
:040024001c090000b3
:020000040000fa
:040028001c090000af
:020000040000fa
:04002c001c090000ab
:020000040000fa
:040030001c090000a7
:020000040000fa
:04003400a80200001e
:020000040000fa
:040038001c0900009f
:020000040000fa
:04003c001c0900009b
:020000040000fa
:040040001c09000097
:020000040000fa
:040044001c09000093
:020000040000fa
:040048001c0900008f
:020000040000fa
:04004c001c0900008b
:020000040000fa
:040050001c09000087
:020000040000fa
:040054001c09000083
:020000040000fa
:040058001c0900007f
:020000040000fa
:04005c001c0900007b
:020000040000fa
:040060001c09000077
:020000040000fa
:040064001c09000073
:020000040000fa
:040068001c0900006f
:020000040000fa
:04006c001c0900006b
:020000040000fa
:040070001c09000067
:020000040000fa
:040074001c09000063
:020000040000fa
:040078001c0900005f
:020000040000fa
:04007c001c0900005b
:020000040000fa
:040080001c09000057
:020000040000fa
:040084001c09000053
:020000040000fa
:040088001c0900004f
:020000040000fa
:04008c001c0900004b
:020000040000fa
:040090001c09000047
:020000040000fa
:040094001c09000043
:020000040000fa
:040098001c0900003f
:020000040000fa
:04009c001c0900003b
:020000040000fa
:0400a0001c09000037
:020000040000fa
:0400a4001c09000033
:020000040000fa
:0400a8001c0900002f
:020000040000fa
:0400ac001c0900002b
:020000040000fa
:0400b0001c09000027
:020000040000fa
:0400b4001c09000023
:020000040000fa
:0400b8001c0900001f
:020000040000fa
:0400bc001c0900001b
:020000040000fa
:0400c0001c09000017
:020000040000fa
:0400c4001c09000013
:020000040000fa
:0400c8001c0900000f
:020000040000fa
:0400cc001c0900000b
:020000040000fa
:0400d0001c09000007
:020000040000fa
:0400d4001c09000003
:020000040000fa
:0400d8001c090000ff
:020000040000fa
:0400dc001c090000fb
:020000040000fa
:0400e0001c090000f7
:020000040000fa
:0400e4001c090000f3
:020000040000fa
:0400e8001c090000ef
:020000040000fa
:0400ec001c090000eb
:020000040000fa
:0400f0001c090000e7
:020000040000fa
:0400f4001c090000e3
:020000040000fa
:0400f8001c090000df
:020000040000fa
:0400fc001c090000db
:020000040000fa
:040100001c090000d6
:020000040000fa
:040104001c090000d2
:020000040000fa
:040108001c090000ce
:020000040000fa
:04010c001c090000ca
:020000040000fa
:040110001c090000c6
:020000040000fa
:040114001c090000c2
:020000040000fa
:040118001c090000be
:020000040000fa
:04011c001c090000ba
:020000040000fa
:040120001c090000b6
:020000040000fa
:040124001c090000b2
:020000040000fa
:040128001c090000ae
:020000040000fa
:04012c001c090000aa
:020000040000fa
:040130001c090000a6
:020000040000fa
:040134001c090000a2
:020000040000fa
:040138001c0900009e
:020000040000fa
:04013c001c0900009a
:020000040000fa
:040140001c09000096
:020000040000fa
:040144001c09000092
:020000040000fa
:040148001c0900008e
:020000040000fa
:04014c001c0900008a
:020000040000fa
:040150001c09000086
:020000040000fa
:040154001c09000082
:020000040000fa
:040158001c0900007e
:020000040000fa
:04015c001c0900007a
:020000040000fa
:040160001c09000076
:020000040000fa
:040164001c09000072
:020000040000fa
:040168001c0900006e
:020000040000fa
:040208001c090000cd
:020000040000fa
:04020c001c090000c9
:020000040000fa
:040210001c090000c5
:020000040000fa
:040214001c090000c1
:020000040000fa
:040218001c090000bd
:020000040000fa
:04021c001c090000b9
:020000040000fa
:040220001c090000b5
:020000040000fa
:040224001c090000b1
:020000040000fa
:040228001c090000ad
:020000040000fa
:04022c001c090000a9
:020000040000fa
:040230001c090000a5
:020000040000fa
:040234001c090000a1
:020000040000fa
:040238001c0900009d
:020000040000fa
:04023c001c09000099
:020000040000fa
:040240001c09000095
:020000040000fa
:040244001c09000091
:020000040000fa
:040248001c0900008d
:020000040000fa
:04024c001c09000089
:020000040000fa
:040250001c09000085
:020000040000fa
:040254001c09000081
:020000040000fa
:040258001c0900007d
:020000040000fa
:04025c001c09000079
:020000040000fa
:040260001c09000075
:020000040000fa
:040264001c09000071
:020000040000fa
:040268001c0900006d
:020000040000fa
:04026c001c09000069
:020000040000fa
:040270001c09000065
:020000040000fa
:040274001c09000061
:020000040000fa
:040278001c0900005d
:020000040000fa
:04027c001c09000059
:020000040000fa
:040280001c09000055
:020000040000fa
:040284001c09000051
:020000040000fa
:040288001c0900004d
:020000040000fa
:04028c001c09000049
:020000040000fa
:040290001c09000045
:020000040000fa
:040294001c09000041
:020000040000fa
:040298001c0900003d
:020000040000fa
:04029c001c09000039
:020000040000fa
:0402a0001c09000035
:020000040000fa
:0402a4001c09000031
:020000040000fa
:0402a8001c0900002d
:020000040000fa
:0402ac001c09000029
:020000040000fa
:0402b0001c09000025
:020000040000fa
:0402b4001c09000021
:020000040000fa
:0402b8001c0900001d
:020000040000fa
:0402bc001c09000019
:020000040000fa
:0402c0001c09000015
:020000040000fa
:0402c4001c09000011
:020000040000fa
:0402c8001c0900000d
:020000040000fa
:0402cc001c09000009
:020000040000fa
:0402d0001c09000005
:020000040000fa
:0402d4001c09000001
:020000040000fa
:0402d8001c090000fd
:020000040000fa
:0402dc001c090000f9
:020000040000fa
:0402e0001c090000f5
:020000040000fa
:0402e4001c090000f1
:020000040000fa
:0402e8001c090000ed
:020000040000fa
:0402ec001c090000e9
:020000040000fa
:0402f0001c090000e5
:020000040000fa
:0402f4001c090000e1
:020000040000fa
:0402f8001c090000dd
:020000040000fa
:0402fc001c090000d9
:020000040000fa
:040300001c090000d4
:020000040000fa
:040304001c090000d0
:020000040000fa
:040308001c090000cc
:020000040000fa
:04030c001c090000c8
:020000040000fa
:040310001c090000c4
:020000040000fa
:040314001c090000c0
:020000040000fa
:040318001c090000bc
:020000040000fa
:04031c001c090000b8
:020000040000fa
:040320001c090000b4
:020000040000fa
:040324001c090000b0
:020000040000fa
:040328001c090000ac
:020000040000fa
:04032c001c090000a8
:020000040000fa
:040330001c090000a4
:020000040000fa
:040334001c090000a0
:020000040000fa
:040338001c0900009c
:020000040000fa
:04033c001c09000098
:020000040000fa
:040340001c09000094
:020000040000fa
:040344001c09000090
:020000040000fa
:040348001c0900008c
:020000040000fa
:04034c001c09000088
:020000040000fa
:040350001c09000084
:020000040000fa
:040354001c09000080
:020000040000fa
:040358001c0900007c
:020000040000fa
:04035c001c09000078
:020000040000fa
:040360001c09000074
:020000040000fa
:040364001c09000070
:020000040000fa
:040368001c0900006c
:020000040000fa
:10040000cf8020000eff20000e01880000000000b9
:10041000000020000000e000020032000001200087
:10042000200288000c000700200b210001002000a2
:1004300011000700000020000000e0000200320070
:10044000000002000000000096030200000000000f
:100450000040da000000fe004440a90080052000b2
:100460000000e0000300320000002000a00188002e
:100470004440a80000000600910188008000780038
:100480000000eb0015003700e280400032a0b4000d
:100490009101ba00e280400032a0b4009102ba009b
:1004a000e280400032a0b4000002eb00472bde00e7
:1004b000f507b200602ce10004003a000059eb009f
:1004c0008301e900fdff3e00040037006128e100e0
:1004d000010032000082eb000b00070011c3ba00dc
:1004e0001101ba000604e00003003a000200e00037
:1004f000e5ff3a0000000600f607b200960188000a
:1005000082007800f5ff37003159ba008301e90015
:100510000c0032002159ba008301e90008003200c2
:100520000400e00003003a00e280400032a0b40082
:10053000f5ff370011d9ba008301e900faff3a004c
:100540008100e800e180400032a0b4000000060015
:1005500000a0fe003600f800849fbe00869fbe000b
:100560003400f80004002000a40188000200fa0012
:1005700001408000010f78001e0078000000e000bc
:1005800009003d001e0fea0021858400000e2000b6
:100590000100700050168800400020007300070022
:1005a00000ff2f0050168800703e20009e0078004b
:1005b000808f5000100034009e007800803e2000a4
:1005c00000017800110009008200d800800040007e
:1005d000a00529000080400090007800000e200057
:1005e0000100700050168800400020005f000700e6
:1005f00000ff2f0050168800300620009e00780073
:10060000808f5000160034009e007800803e20004d
:1006100000017800110009008200d8008000fd0070
:1006200080007800400620000001780011000900d9
:100630008200d80080004000a00529000080400012
:1006400090007800000d2000010070005016880016
:10065000400020004500070000ff2f0050168800d2
:100660009e0078004006200000017800110009007b
:100670008200d8008000fd0080007800a0002000eb
:1006800000017800110009008200d80080004000bd
:10069000a00529000080400090007800000b200099
:1006a0008100700010858400008060005016880072
:1006b000400020002d00070000ff2f00501688008a
:1006c0009e007800a00020000001780011000900c1
:1006d0008200d8008000fd0080004000a0052900b5
:1006e00000804000900078000007200001007000aa
:1006f00050168800400020001c00070000ff2f005b
:100700005016880010002000180007008460a9001f
:100710000080fa003400f9004f03be004f02be0013
:100720003600f9000080fe00004006000000fa00dc
:100730000028ef0020002000404088001d00070036
:100740007900070096000700fdff37000200fa005d
:10075000004f78001e4fe9001e4078000004e000c2
:10076000fcff3a000080fa00000006000400fa00d6
:100770001007980010c0b300004f7800a0cfb3005e
:10078000f2ff07001e4fe9001e4078000004e00061
:10079000faff3a001e0090000000e90010079800e0
:1007a0001e0090000000e000f2ff3a000080fa0016
:1007b000000006000000fa00060007001300070012
:1007c0001c0007002f000700540007000080fa00fb
:1007d000000006000000fa00103a800000c0a100ee
:1007e00000d0a00000e0a100103a8800103a80007c
:1007f0000080a1000090a00000a0a100103a880095
:1008000042e7a8000080fa00000006000000fa009d
:10081000f0f0200000168800c222ef00c822ef008e
:10082000ca22ef00d022ef00d222ef000080fa00af
:10083000000006000000fa0005a1a9000421a9009b
:10084000200880000040a1000050a100200888007e
:100850000021ef0080882800100888002005800013
:1008600000c0a00000d0a00000e0a000200588008b
:100870008460a9009460a80005e1a8000080fa0047
:10088000000006000000fa004023a9004043a80031
:10089000001a80000040a0000050a0000060a000ee
:1008a0000070a100001a8800001a80000080a100da
:1008b0000090a100001a88004143a8004223a9002b
:1008c000111a800030f82f0000806000c001b300d2
:1008d000101a880043a3a900101a800000e0a100ac
:1008e00000f0a100101a8800f0c3b30044e3b70081
:1008f000211a8000f00f2e0000806000201a88006e
:1009000045e3a9004823ef0030002000801a88004a
:1009100041e3a8000080fa00000006000000fa0091
:100920000080fa00000006000000fa0011168000a6
:1009300000102000008060000000e00001003a008c
:100940000828ef00111680000020200000806000c1
:100950000000e00002003a00100020004040880043
:100960001116800000402000008060000000e000c0
:1009700002003a002000200040408800111680004c
:1009800000802000008060000000e00002003a00cb
:1009900030002000404088000080fa00000006007f
:1009a0000c00fa00889fbe000018800080007800cc
:1009b0000000eb0041000700008fbe002003200074
:1009c0006aff0700101880008000780000102000e7
:1009d0003a00070020079800310798002e00900089
:1009e000be0090000001be00160207001e01be00fe
:1009f0001302070002002400c36124002d03070036
:100a00000004be001e01be000000200001582400aa
:100a10000b0207000001be000800be0066020700ce
:100a2000400798005107980040408000e10f5000b7
:100a30000c003200e10f500005003900e20f5000b9
:100a40000e003200e30f5000120032001600370093
:100a50001e00be009e0207000000780000408800d3
:100a6000110037002e009000be0090009802070091
:100a700000007800004088000b0037004e00900016
:100a8000de0090009202070000007800004088001d
:100a9000050037004e009000de00900022010700a4
:100aa0000040880000000000401f20002fff0700ca
:100ab0004f04be000080fa00000006002200fa0089
:100ac000889fbe008a9fbe00700f98000117980093
:100ad0000f0578000f00780080057800c0c0b300d3
:100ae00040579800c0c0b300505798005e50900027
:100af0000000fb000000e900300f98005e509000fd
:100b00000000fb004200dd000000e8000000e800fb
:100b10000000d100800040000f007800818747006e
:100b20000000e8000000d10000004000400f9800e5
:100b30004e5090000000fb000000e900500f9800ac
:100b40004e5090000000fb004200dd000000e80075
:100b50000000e8000000d100800040000f00780095
:100b6000818747000000e8000000d100000040003d
:100b7000600f9800fe089000411a880020c3b3005f
:100b8000f2fe07000000eb00000f7800870037003e
:100b90006000b80020079800310798000000eb00c3
:100ba000100798001d00370000000000001a8000a8
:100bb000610060000000e000fcff32000e109000b9
:100bc0008000eb0066020700ce0990001e01900035
:100bd0004211dd00028141000089be00ce08900074
:100be0001e0090004200dd00008040001000be00aa
:100bf0000001be002e009000be0090009101070091
:100c0000200798003107980050c0b300cffe0700be
:100c10001e0090000000e800100798005e50900051
:100c20008000fb001e009000808f5000deff3c0023
:100c30004e0890001001be0042079800530798002c
:100c40004e0890001001be006207980073079800dc
:100c50000000eb00100798002d003700ce08900030
:100c60001e0090004200dd00008040001000be0029
:100c700018c0b3004e019000de0190001202070080
:100c80000000e00001003c000044eb000804e0002c
:100c900007003200ce0890001e0090004200dd00e8
:100ca000008040001001be004207980053079800e2
:100cb000ce0890001e0090004200dd000080400041
:100cc0001000be0018c0b3006e019000fe0190003d
:100cd000fb0107000000e000010035000044eb00cc
:100ce0000804e00007003200ce0890001e009000cb
:100cf0004200dd00008040001001be006207980045
:100d0000730798001e0090000000e800100798008c
:100d10005e5090008000fb001e009000808f50000d
:100d2000ceff3c004e019000de0190002e009000ae
:100d3000be009000420107006e019000fe0190008d
:100d40003f0107000004be005e5090000000fb0061
:100d50000080e900cf80de00fe0107000001be0038
:100d60000800be0094010700ee0990001e01780003
:100d70004211dd00028141000089be00ee089000b2
:100d80001e0078004200dd00008040001000be0020
:100d90000001be000e0890009e0890002901070087
:100da000000f9800110f98001e0fe8004e509000a1
:100db0000000fb009e0f500075ff3c006e08900085
:100dc0001001be0042079800530798006e0890007b
:100dd0001001be0062079800730798000000eb0046
:100de000000f78002b003700ee0890001e007800fe
:100df0004200dd00008040001000be0018c0b300bb
:100e00004e019000de019000af0107000000e000fd
:100e100001003c000044eb000804e0000700320041
:100e2000ee0890001e0078004200dd0000804000c7
:100e30001001be004207980053079800ee0890008a
:100e40001e0078004200dd00008040001000be005f
:100e500018c0b3006e019000fe01900098010700d9
:100e60000000e000010035000044eb000804e00051
:100e700007003200ee0890001e0078004200dd00fe
:100e8000008040001001be006207980073079800c0
:100e90001e0fe8004e5090000000fb009e0f500017
:100ea000d1ff3c004e019000de0190000e08900042
:100eb0009e089000e20007006e019000fe01900085
:100ec000df0007000004be004e5090000000fb0051
:100ed0000080e900cf80de009e0107000001be0017
:100ee0000800be0034010700000f9800110f9800a1
:100ef0000e0890009e0890008b0778008a07780003
:100f00004f05be004f04be000080fa00000006003e
:100f10000000fa000080fa00000006000000fa005d
:100f20000080fa00000006002800fa00889fbe003a
:100f30008a9fbe0020179800311798006000b80003
:100f4000008fbe00400a230051372c002007980074
:100f500031079800d0002e001102240040079800ad
:100f6000510798000032240071d82b0060079800c8
:100f700071079800f046270041b82300000f980041
:100f8000110f9800d0522e00a1602b00200f980066
:100f9000310f9800c01c240001cd2b00400f980099
:100fa000510f9800309f2400d1ad2300600f9800ae
:100fb000710f9800e0ca2800615b2b0000179800b1
:100fc000111798002e119000be1190004e00900055
:100fd000de009000b70107000004be002e10900054
:100fe000be1090000001be00b20107006e0190002b
:100ff000fe019000af0107000001be000800be0026
:10100000900007000004be0002002000030424003a
:101010002e109000be109000da0107000e0990001b
:101020009e099000a30107000001be000800be0059
:10103000840007000004be00020020000308240012
:101040002e109000be109000ce0107002e099000d7
:10105000be099000970107000001be000800be0015
:10106000780007000004be002e119000be11900011
:101070004e089000de0890008e010700020020005c
:1010800003f823006f0007000005be0002002000e7
:10109000030024002e109000be109000b90107003c
:1010a0006e099000fe099000820107000001be0059
:1010b0000a00be00630007000005be000200200019
:1010c000030424002e109000be109000ad01070014
:1010d0000e1190009e119000760107000001be00e5
:1010e0000a00be00570007000001be000800be0055
:1010f000b10007002e019000be01900051000700d2
:10110000008fbe0002002000031224001e00be005b
:1011100068010700ee0007008000780000712200df
:1011200000017800110009008200d8008000fd0055
:101130004f05be004f04be000080fa00000006000c
:101140000200fa00000f780000000000013b800060
:1011500000002800008060000000e000fbff3a0073
:10116000f0c7b30032e0b70001e02f001e8040005e
:101170001000ba000080fa00000006000400fa0027
:10118000000f78001107980000000000013b80006c
:1011900000002800008060000000e000fbff3a0033
:1011a00080052400003b8800f0c7b30032e0b700a0
:1011b00001e02f001e8040008080eb000108bb0092
:1011c0000500fc0050052000303b8800a00a2000ec
:1011d000303b880061e7a80000000000000000002c
:1011e00000000000013b800000002800008060003b
:1011f0000000e000fbff3a0040002400003b8800b4
:1012000001e02f001e8040009e0090000108bb00fe
:101210000500fc0050052000303b8800a00a20009b
:10122000303b880061e7a8000000000000000000db
:101230000080fa00000006000040da000000fe0016
:1012400003f0a200889fbe008a9fbe008c1f78001a
:1012500000010700070133006450e1004f00320035
:101260006420e1005200320003826c0007003b0062
:101270000905d0000306d000820f54000c065d0063
:10128000020039000200320089017800030678006c
:101290008582550004003d000003fd008103fd0030
:1012a0008502ea008b854200840f720002003b0039
:1012b00060001000e08018006011b8000005eb002d
:1012c0007a28e1000a00390006007800c75ddd00d9
:1012d000f707b200878075002d003700828171000a
:1012e0000a017800610560008180d1000080d30090
:1012f0008502e900f9ff3b000604400087844800ae
:1013000002003b0060041400e0841c000988a30074
:10131000070032008a8171008281710061016400de
:101320008904d1000884d3008b05e800170037003a
:101330000978a30013003a000b00e000130034000a
:101340008b05e9000804440089844c000a447400b9
:101350000978a3000d003a000b00e00007003400fc
:101360008b05e9000804440089844c0001003a0020
:101370000b0020000978a300f7ff32000001eb000a
:1013800002003700828171000a01780076000700b0
:101390000cf0a70001f0a000bf0037006420e100be
:1013a00002003a00838f6c00bf0033000801be00ca
:1013b0000200be00b8003700889fbe008a9fbe00b2
:1013c0008c1f7800a3000700aa00330003866c007e
:1013d0006450e1002e0032006420e100330032004e
:1013e0006150e1002f0032006120e1003100320045
:1013f00085855500eb07b000090020000804200097
:10140000050037000804440089844c000a003100bc
:101410000603430087834b000001530081815b007a
:10142000f8ff33000203be000800a00008044400d7
:1014300089844c00f6ff3900c639dd008301730052
:1014400001003200130020008904d1000884d30079
:101450000998a300050032000800a7000300a000bf
:101460008904d1000884d3008b05e8008904d100e9
:101470000884d3000001eb000281d2003a0007008b
:1014800001f0a1000cf0a70001f0a00082003700dd
:101490006420e100840032000801be000200be00aa
:1014a000f7ff37006120e1007f0032006000b800e4
:1014b000f3ff37000000200001f82700f0ff37009d
:1014c0001400200028023700f4ff2f002602370006
:1014d0000001be004a0007000470a70003f0a1004d
:1014e0006509b100160032000d0035006828e100e2
:1014f00006003500f0ff2f00f1ff27000300e00099
:1015000013003b000100280000000500000040001f
:10151000818048008502e900fcff3a00080037009e
:10152000f88f420002003c008000eb000000050044
:101530008100d1000080d3008502e800fcff3a0062
:101540000300e00002003b0060001000e080180093
:10155000000006004f89de00820178001d0237007e
:101560006011b8002b023700810020006180550017
:101570000b003d000b00200061fe2f000100e10088
:101580001d00340082817100610164008904d10072
:101590000884d3000000e800faff3a007100200040
:1015a0006100640003007000020060000900320066
:1015b00061044400e0844c000988a5000500320065
:1015c0008b05e8006808e10002003a008904d100b8
:1015d0000884d300f20f20000258e10005003d000e
:1015e000c75ddd00f907b20089807500080078004a
:1015f000000006000bf827008b00780000000500b3
:10160000c70ade00f107b200f50fb2000800320091
:10161000e1cf4200020032000170a000240005006a
:10162000810f70000100320004080500440005002d
:10163000810f700002003a00140005008502e900e5
:101640000000400081c04800fcff3b000170a0008a
:10165000240005000004be00e9ff07000003be00ef
:101660000405be000200be00e5ff0700844f7500c0
:10167000000006000200be006450e10005003600d4
:101680006420e100020036000968a30001003a006e
:101690000800be000160a0004f0678004f05be00a4
:1016a0004f04be0000000600f0ff2f00f1ff2700ee
:1016b000f9ff3700889fbe008a9fbe008c1f78000c
:1016c000e4ff0700ebff330003866c006450e10089
:1016d000240032006420e100270032006150e10064
:1016e000220032006120e100210032008b8542009f
:1016f000eb07b1000134b800003ab800080442001a
:1017000089844a00013ab8000030b800888040005f
:1017100009014a00040033000000400081804800b5
:10172000020149008b05e900c909dd008301700051
:101730000100320013002000c814de004814dd0050
:101740004709de001200b200c808de0008847000fd
:1017500085ff070001f0a1000cf0a70001f0a00038
:10176000cdff37006120e100cfff32000801be004d
:101770000200be00f7ff37006150e100fcff3a00b5
:10178000c9ff37000c00fa00889fbe008a9fbe0088
:101790008c9fbe00afff07000206be0084057800e4
:1017a0000200be00020020004801070005003a00c8
:1017b0008b02b300120020004401070001003a0030
:1017c000f8856d000c01be00c60007000800be00d1
:1017d0009b0032000b08a3009e003a000df0a7000a
:1017e0000be0a00009f0a7000bf0a00009f0a10099
:1017f0000801be00bb0007000bf0a60095003200f8
:1018000001003c000bd0a0008acf7500b20033006d
:101810006000b8006250e10099003900a1003e006c
:101820000b28a300a2003a000bf8a3000600320028
:101830000b58a300a70032000801be00a900070052
:101840000800be00940032000800be00b00007008f
:101850000004be00050578000bf0a7000b30a600c1
:101860000bf0a1005b079800324f200053f32300d8
:1018700013ff070005003d000800be001200200015
:10188000930107000004be000a05e9004a0798001a
:101890006150b9002fff0700008fbe000c01be0091
:1018a00084ff07000aff0700300798000100e000ee
:1018b00002003d0060001000e0801800f2ff2700e9
:1018c000820f5000e08f580064003e000c00be0004
:1018d000fffe070020079800f2072000820f50004b
:1018e000e08f580005003c0012f82f00f3ff2f0096
:1018f000820f5000838f580009003d000a00e0006d
:101900000300320001003c000201ea0002057800f9
:101910006000b800200798003a07980019003700c7
:101920003e0090006100b9000aff0700809fbe00e2
:101930000c00be004109dd004811de007208b10054
:10194000e20007000005be001e01be0059ff0700af
:101950004f01be003afe0700809fbe000c00be0093
:101960000a01be0036fe07001e01be0051ff07003f
:101970004f01be0033fe07008221270013f323002e
:101980004cff07000005be002e0090006100b9006a
:10199000f0fe070001f0a2000c01be0029fe0700c6
:1019a0000006be000800be006b0107000c01be006f
:1019b00040ff07000a01be0022fe0700809fbe0014
:1019c0004a0007002e0590000af0a7000a05ea0069
:1019d000050037000800be000801be0035ff070003
:1019e0000004be000c00be000801be000a00a700f3
:1019f00030ff07000006be000a05d100f5ff3a00df
:101a00005e01900002e0a600030037000001be0066
:101a10003600070068fe07000004be004f00be004d
:101a2000480007000801be0022ff07003e019000a9
:101a300027010700de0590000bf0a70001f0a200cf
:101a40004f06be004f05be004f04be000080fa00e6
:101a50000000060025000700f9ff370027000700f7
:101a60006000b8000bd0a7000bc0a0000be0a700df
:101a70000bc0a2000bc0a70001f82700f0ff370041
:101a80000df8a300020032001e0007001900070035
:101a90000bf8a300eaff32000b30a70001f0a20010
:101aa000e7ff37000df8a300f9ff3a00f7ff370012
:101ab0000801be000b000700e6ff320001003c00f9
:101ac0000df0a2006000b8000df0a70009000700ab
:101ad000dbff37000b000700f1ff2700f0ff2f00ae
:101ae000d7ff37000100070075fe370001f823001b
:101af0000000050001f8270000000500200220007a
:101b0000010037001002200050408800000006004d
:101b10000003be00bafe07006220e10002003200ae
:101b20000600be0005000500e507b100f107b200a0
:101b300004f023008480700007f0a70001f0a000eb
:101b400024000500889fbe008a9fbe008c9fbe00b7
:101b50000004be00aafe07000800be006420e100e9
:101b600048003e005500320072212700132b24004c
:101b700055fe070047003c000800be00c2ec2800ec
:101b8000e32c2c004efe0700470035000800be0085
:101b900001f0a100020020000338230048fe0700e6
:101ba000430035000800be00b2a32a0083fb2300d7
:101bb000c0fe07000200200003f0230001f0a70090
:101bc00003f0a0009ffd070041fe07000005be00d6
:101bd00060fe070001f0a2000006be00020028001f
:101be00013f32300b3fe07000801be0095fd0700b4
:101bf000809fbe000c00be0032082800e3952b0039
:101c0000acfe07004f01be008efd07000006be00bf
:101c10000001be00a7fe0700809fbe0042412500d4
:101c200083b82300a3fe07000200200003e823007e
:101c300084fd07000c01be009efe07000006be00ea
:101c40004f00be00f2f92b00c3d4230099fe070019
:101c50000200200003f023007afd07000c01be0003
:101c600077fd07000001be000c00be00d2fd07009a
:101c70000200200003f0230072fd0700610145000f
:101c8000930007004f06be004f05be004f04be0084
:101c90000000060001f827000000200022022000ba
:101ca00052408800f7ff37006000b800fbff3700a4
:101cb00001f8230000002000f2ff370009f8a3001c
:101cc000f0ff32006000b800eeff3700889fbe00d2
:101cd0008a9fbe000003be0049fe0700850578000c
:101ce00082815200020020006220e10004003a00dc
:101cf000f307b100040035007718e1000400350057
:101d00000600be00140037006000b8000f00370066
:101d1000f50f2000faff2f008502d1000a85d300bd
:101d20008301e900fcff3b00818462000004650040
:101d3000890f7400f2ff32008582ea000a85ea000a
:101d4000818462000004650007fe070007f0a70019
:101d500001f0a0000081eb000200e0004f05be0092
:101d60004f04be0000000600889fbe008a9fbe0090
:101d7000841f780037fe07004f0078001100330001
:101d8000f0ff2f00838f6c0006003b000405650008
:101d90000a00a7000800370009f0a6001000200084
:101da00008003700820f5400838f5c000300390065
:101db0001000200001003e000000200009f0a700f4
:101dc0000000ea004f05be004f04be000000e00026
:101dd00000000600881f7800030478000300e0007c
:101de00007003d0060001000e0801800600119004d
:101df000e081190002003b0001f02d0003003700d4
:101e00000400070008f0a70001f0a0004f047800cc
:101e100000000600889fbe008a9fbe0000827000fe
:101e20000402710004827100260032000004be002a
:101e30000200be006011b8006b092000950220006e
:101e40000182cf000a0039000541b1000082cf00b5
:101e5000070039000541b1000982cf0004003900b4
:101e60000541b1000882cf00010039000541b100f1
:101e700005425200120032000a003b0082817100cc
:101e8000610164008100d1000080d3008984d30007
:101e90000884d3008b05e8000442e800f7ff3a000d
:101ea000070037000804440089844c000000480003
:101eb000818048008b05e9000442e900f9ff3a00ff
:101ec000a9fd07004f05be004f04be00000006003c
:101ed0000003be00cafd07006220e10002003200dc
:101ee0000600be000000060085024100e30f20004e
:101ef0000328e10005003c00a3fe2f000328e100b9
:101f000007003d000500200001003700f50f20000c
:101f100020022000504088006000b8000800370010
:101f2000130020008381520005003d008100d10094
:101f30000080d3008301e800fcff3a000500200088
:101f4000c72add00f107b2008580700007f0a70006
:101f500001f0a00000000600889fbe008a9fbe001e
:101f60008c9fbe00eafe0700850478000005be00d5
:101f70006420e10049003e006220e10003003200dd
:101f8000090035000bf8a300440032000bf8a30051
:101f9000080032001002200050408800f0ff2f009f
:101fa000f1ff27003d00370001f82f00000020005e
:101fb0003a0037003d000700a1fc07000006be0004
:101fc0000a00be00324f200053f323003efd0700fd
:101fd000060034000c00be003400070098fc070027
:101fe0000006be000a00be00020037008904e900b6
:101ff0000c00be002d000700aefd07002b000700ff
:1020000090fc07000001be000c00be00eafc0700c7
:102010000005be000001be00a6fd07000006be00d0
:10202000a2f32300430d2c0086fc0700809fbe0016
:102030000c00be00d2e32700d3f02b009dfd07006b
:102040004f01be00dcfc07000006be000a01be0016
:1020500098fd07000a01be007afc07000006be00da
:102060006148b9003bfd07000005be0032082800aa
:10207000e3952b008ffd07000c01be0071fc0700eb
:102080000006be000a00be000200280013f3230071
:1020900088fd07000c01be006afc07004f06be0069
:1020a0004f05be004f04be000000060003f02300f1
:0420b0000200050025
:020000040000fa
:1020b40000c0000000f9000000a4000000b000000f
:1020c40000990000009200000082000000d8000087
:1020d40000800000009000000088000000830000e1
:1020e40000a7000000a1000000860000008e000090
:1020f40000c200000089000000cf000000e10000e1
:102104000085000000c7000000aa000000ab00002a
:1021140000a30000008c00000098000000af000045
:10212400009200000087000000e30000008100002e
:102134000095000000c900000091000000b60000f6
:10214400ff7f000000bf000033330000533a00005b
:1021540055550000f54000006f120000833a00005e
:020000040000fa
:10216400000800000a000000000000000a08000047
:0c2174000200000000000000c01080000d
:020000040000fa
:04218000000000005b
:020000040000fa
:0200000401f009
:04000000ffff0000fe
:020000040000fa
:0200000401f009
:04000800ffff0000f6
:020000040000fa
:0200000401f009
:04000c00daff000017
:020000040000fa
:0200000401f009
:04001000b0ff00003d
:020000040000fa
:0200000401f009
:0400140048ff0000a1
:020000040000fa
:0200000401f009
:04001800fcff0000e9
:020000040000fa
:0200000401f009
:04001c00ffff0000e2
:020000040000fa
:0200000401f009
:040020003fff00009e
:00000001FF
