:020000040000fa
:080000000002040000000000f2
:020000040000fa
:0400080036110000ad
:020000040000fa
:04000c0036110000a9
:020000040000fa
:0400100036110000a5
:020000040000fa
:0400140036110000a1
:020000040000fa
:04001800361100009d
:020000040000fa
:04001c003611000099
:020000040000fa
:040020003611000095
:020000040000fa
:040024003611000091
:020000040000fa
:04002800361100008d
:020000040000fa
:04002c003611000089
:020000040000fa
:040030003611000085
:020000040000fa
:04003400a80200001e
:020000040000fa
:04003800361100007d
:020000040000fa
:04003c003611000079
:020000040000fa
:040040003611000075
:020000040000fa
:040044003611000071
:020000040000fa
:04004800361100006d
:020000040000fa
:04004c003611000069
:020000040000fa
:040050003611000065
:020000040000fa
:040054003611000061
:020000040000fa
:04005800361100005d
:020000040000fa
:04005c003611000059
:020000040000fa
:040060003611000055
:020000040000fa
:040064003611000051
:020000040000fa
:04006800361100004d
:020000040000fa
:04006c003611000049
:020000040000fa
:040070003611000045
:020000040000fa
:040074003611000041
:020000040000fa
:04007800361100003d
:020000040000fa
:04007c003611000039
:020000040000fa
:040080003611000035
:020000040000fa
:040084003611000031
:020000040000fa
:04008800361100002d
:020000040000fa
:04008c003611000029
:020000040000fa
:040090003611000025
:020000040000fa
:040094003611000021
:020000040000fa
:04009800361100001d
:020000040000fa
:04009c003611000019
:020000040000fa
:0400a0003611000015
:020000040000fa
:0400a4003611000011
:020000040000fa
:0400a800361100000d
:020000040000fa
:0400ac003611000009
:020000040000fa
:0400b0003611000005
:020000040000fa
:0400b4003611000001
:020000040000fa
:0400b80036110000fd
:020000040000fa
:0400bc0036110000f9
:020000040000fa
:0400c00036110000f5
:020000040000fa
:0400c40036110000f1
:020000040000fa
:0400c80036110000ed
:020000040000fa
:0400cc0036110000e9
:020000040000fa
:0400d00036110000e5
:020000040000fa
:0400d40036110000e1
:020000040000fa
:0400d80036110000dd
:020000040000fa
:0400dc0036110000d9
:020000040000fa
:0400e00036110000d5
:020000040000fa
:0400e40036110000d1
:020000040000fa
:0400e80036110000cd
:020000040000fa
:0400ec0036110000c9
:020000040000fa
:0400f00036110000c5
:020000040000fa
:0400f40036110000c1
:020000040000fa
:0400f80036110000bd
:020000040000fa
:0400fc0036110000b9
:020000040000fa
:0401000036110000b4
:020000040000fa
:0401040036110000b0
:020000040000fa
:0401080036110000ac
:020000040000fa
:04010c0036110000a8
:020000040000fa
:0401100036110000a4
:020000040000fa
:0401140036110000a0
:020000040000fa
:04011800361100009c
:020000040000fa
:04011c003611000098
:020000040000fa
:040120003611000094
:020000040000fa
:040124003611000090
:020000040000fa
:04012800361100008c
:020000040000fa
:04012c003611000088
:020000040000fa
:040130003611000084
:020000040000fa
:040134003611000080
:020000040000fa
:04013800361100007c
:020000040000fa
:04013c003611000078
:020000040000fa
:040140003611000074
:020000040000fa
:040144003611000070
:020000040000fa
:04014800361100006c
:020000040000fa
:04014c003611000068
:020000040000fa
:040150003611000064
:020000040000fa
:040154003611000060
:020000040000fa
:04015800361100005c
:020000040000fa
:04015c003611000058
:020000040000fa
:040160003611000054
:020000040000fa
:040164003611000050
:020000040000fa
:04016800361100004c
:020000040000fa
:0402080036110000ab
:020000040000fa
:04020c0036110000a7
:020000040000fa
:0402100036110000a3
:020000040000fa
:04021400361100009f
:020000040000fa
:04021800361100009b
:020000040000fa
:04021c003611000097
:020000040000fa
:040220003611000093
:020000040000fa
:04022400361100008f
:020000040000fa
:04022800361100008b
:020000040000fa
:04022c003611000087
:020000040000fa
:040230003611000083
:020000040000fa
:04023400361100007f
:020000040000fa
:04023800361100007b
:020000040000fa
:04023c003611000077
:020000040000fa
:040240003611000073
:020000040000fa
:04024400361100006f
:020000040000fa
:04024800361100006b
:020000040000fa
:04024c003611000067
:020000040000fa
:040250003611000063
:020000040000fa
:04025400361100005f
:020000040000fa
:04025800361100005b
:020000040000fa
:04025c003611000057
:020000040000fa
:040260003611000053
:020000040000fa
:04026400361100004f
:020000040000fa
:04026800361100004b
:020000040000fa
:04026c003611000047
:020000040000fa
:040270003611000043
:020000040000fa
:04027400361100003f
:020000040000fa
:04027800361100003b
:020000040000fa
:04027c003611000037
:020000040000fa
:040280003611000033
:020000040000fa
:04028400361100002f
:020000040000fa
:04028800361100002b
:020000040000fa
:04028c003611000027
:020000040000fa
:040290003611000023
:020000040000fa
:04029400361100001f
:020000040000fa
:04029800361100001b
:020000040000fa
:04029c003611000017
:020000040000fa
:0402a0003611000013
:020000040000fa
:0402a400361100000f
:020000040000fa
:0402a800361100000b
:020000040000fa
:0402ac003611000007
:020000040000fa
:0402b0003611000003
:020000040000fa
:0402b40036110000ff
:020000040000fa
:0402b80036110000fb
:020000040000fa
:0402bc0036110000f7
:020000040000fa
:0402c00036110000f3
:020000040000fa
:0402c40036110000ef
:020000040000fa
:0402c80036110000eb
:020000040000fa
:0402cc0036110000e7
:020000040000fa
:0402d00036110000e3
:020000040000fa
:0402d40036110000df
:020000040000fa
:0402d80036110000db
:020000040000fa
:0402dc0036110000d7
:020000040000fa
:0402e00036110000d3
:020000040000fa
:0402e40036110000cf
:020000040000fa
:0402e80036110000cb
:020000040000fa
:0402ec0036110000c7
:020000040000fa
:0402f00036110000c3
:020000040000fa
:0402f40036110000bf
:020000040000fa
:0402f80036110000bb
:020000040000fa
:0402fc0036110000b7
:020000040000fa
:0403000036110000b2
:020000040000fa
:0403040036110000ae
:020000040000fa
:0403080036110000aa
:020000040000fa
:04030c0036110000a6
:020000040000fa
:0403100036110000a2
:020000040000fa
:04031400361100009e
:020000040000fa
:04031800361100009a
:020000040000fa
:04031c003611000096
:020000040000fa
:040320003611000092
:020000040000fa
:04032400361100008e
:020000040000fa
:04032800361100008a
:020000040000fa
:04032c003611000086
:020000040000fa
:040330003611000082
:020000040000fa
:04033400361100007e
:020000040000fa
:04033800361100007a
:020000040000fa
:04033c003611000076
:020000040000fa
:040340003611000072
:020000040000fa
:04034400361100006e
:020000040000fa
:04034800361100006a
:020000040000fa
:04034c003611000066
:020000040000fa
:040350003611000062
:020000040000fa
:04035400361100005e
:020000040000fa
:04035800361100005a
:020000040000fa
:04035c003611000056
:020000040000fa
:040360003611000052
:020000040000fa
:04036400361100004e
:020000040000fa
:04036800361100004a
:020000040000fa
:100400006f8020000eff20000e0188000000000019
:10041000000020000000e000020032000001200087
:10042000200288000c00070060b8210001002000b5
:1004300011000700000020000000e0000200320070
:1004400000000200000000007e0302000000000027
:100450000040da000000fe004440a900a005200092
:100460000000e0000300320000002000a00188002e
:100470004440a80000000600910188008000780038
:100480000000eb0015003700e280400032a0b4000d
:100490009101ba00e280400032a0b4009102ba009b
:1004a000e280400032a0b4000002eb00472bde00e7
:1004b000f507b200602ce10004003a000059eb009f
:1004c0008301e900fdff3e00040037006128e100e0
:1004d000010032000082eb000b00070011c3ba00dc
:1004e0001101ba000604e00003003a000200e00037
:1004f000e5ff3a0000000600f607b200960188000a
:1005000082007800f5ff37003159ba008301e90015
:100510000c0032002159ba008301e90008003200c2
:100520000400e00003003a00e280400032a0b40082
:10053000f5ff370011d9ba008301e900faff3a004c
:100540008100e800e180400032a0b4000000060015
:1005500000a0fe003600f800849fbe00869fbe000b
:100560003400f80004002000a40188000200fa0012
:1005700000408000114080004d080700000f780007
:10058000703e20009e007800808f500010003400e4
:100590009e007800803e20000001780011000900d4
:1005a0008200d80080004000c0b2290000804000d6
:1005b00090007800000e20000100700050168800a6
:1005c000500020005c000700000f2000501688003b
:1005d000300620009e007800808f50001600340006
:1005e0009e007800803e2000000178001100090084
:1005f0008200d8008000fd008000780040062000c6
:1006000000017800110009008200d800800040003d
:10061000c0b229000080400090007800000d20004a
:1006200001007000501688005000200042000700b2
:10063000000f2000501688009e0078004006200021
:1006400000017800110009008200d8008000fd0040
:1006500080007800a000200000017800110009004f
:100660008200d80080004000c0b229000080400015
:1006700090007800000b200081007000a0db840057
:100680000080600050168800500020002a000700fb
:10069000000f2000501688009e007800a000200067
:1006a00000017800110009008200d8008000fd00e0
:1006b00080004000c0b22900008040009000780017
:1006c0000007200001007000501688005000200034
:1006d00019000700000f2000501688008460a90050
:1006e0000080fa003400f9004f03be004f02be0044
:1006f0003600f9000080fe00004006000000fa000d
:100700001f000700770007007900070019020700a3
:100710001b020700fbff37000200fa00004f7800c1
:100720001e4fe9001e4078000004e000fcff3a0084
:100730000080fa00000006000400fa00100798008c
:1007400010c0b300004f7800a0cfb300f2ff070045
:100750001e4fe9001e4078000004e000faff3a0056
:100760001e0090000000e900100798001e00900095
:100770000000e000f2ff3a000080fa0000000600ee
:100780000000fa0005000700120007001b00070028
:100790002e0007000080fa00000006000000fa00aa
:1007a000103a800000c0a10000d0a00000e0a1002d
:1007b000103a8800103a80000080a1000090a0004c
:1007c00000a0a100103a880042e7a8000080fa00cb
:1007d000000006000000fa0030f02000001688003b
:1007e000c222ef00c822ef00ca22ef00d022ef00a1
:1007f000d222ef000080fa00000006000000fa009c
:1008000005a1a9000421a900200880000040a10042
:100810000050a100200888000021ef007077270019
:10082000100888002005800000c0a00000d0a100b2
:1008300000e0a100200588008460a9009460a80061
:1008400005e1a8000080fa00000006000000fa00a0
:100850004023a9004043a800001a80000040a000e7
:100860000050a0000060a0000070a100001a8800e5
:10087000001a80000080a1000090a100001a8800ea
:100880004143a8004223a900111a800030f82f002c
:1008900000806000c001b300101a880043a3a900c3
:1008a000101a800000e0a10000f0a100101a8800da
:1008b000f0c3b30044e3b700211a8000f00f2e000c
:1008c00000806000201a880045e3a9004823ef005b
:1008d00030002000801a880041e3a8000080fa0060
:1008e000000006000000fa000080fa000000060088
:1008f0003600fa00889fbe008a9fbe008c9fbe0013
:100900008f007800211f98000f007800101f9800ba
:10091000c0c0b30040579800c0c0b3005057980003
:100920003013210001b82300300f9800410f9800c8
:1009300000582000b1512b00500f9800610f980013
:10094000d0d1220031c92a00700f980001179800f9
:100950005e5090000000fb000000e90010179800b6
:100960005e5090000000fb004200dd000000e80047
:100970000000e8000000d100800040000f00780077
:10098000818747000000e8000000d100000040001f
:10099000201798004e5090000000fb000000e90076
:1009a000301798004e5090000000fb004200dd0020
:1009b0000000e8000000e8000000d10080004000d6
:1009c0000f007800818747000000e8000000d10098
:1009d000000040004017980010002000401a8800d6
:1009e00020c3b3004cff07006000b800000f980060
:1009f000110f98000000eb00000f7800870037000f
:100a00006000b80020079800310798000000eb0054
:100a1000100798001d00370000000000001a800039
:100a2000610060000000e000fcff32001018800050
:100a30008000eb0042070700ae1190001e019000fd
:100a40004211dd00028141000089be00ae1090001d
:100a50001e0090004200dd00008040001000be003b
:100a60000001be002e009000be00900004060700aa
:100a7000200798003107980020c3b30026ff070025
:100a80001e0090000000e800100798005e509000e3
:100a90008000fb001e009000808f5000deff3c00b5
:100aa0002e1090001001be004207980053079800d6
:100ab0002e1090001001be00620798007307980086
:100ac0000000eb00100798002d003700ae109000da
:100ad0001e0090004200dd00008040001000be00bb
:100ae00018c0b3004e019000de019000ee06070032
:100af0000000e00001003c000044eb000804e000be
:100b000007003200ae1090001e0090004200dd0091
:100b1000008040001001be00420798005307980073
:100b2000ae1090001e0090004200dd0000804000ea
:100b30001000be0018c0b3006e019000fe019000ce
:100b4000d70607000000e000010035000044eb007c
:100b50000804e00007003200ae1090001e00900074
:100b60004200dd00008040001001be0062079800d6
:100b7000730798001e0090000000e800100798001e
:100b80005e5090008000fb001e009000808f50009f
:100b9000ceff3c004e019000de0190002e00900040
:100ba000be009000b50507006e019000fe019000a8
:100bb000b20507000004be005e5090000000fb007c
:100bc0000080e900cf80de00da0607000001be00e9
:100bd0000800be0070060700ce1190001e017800cc
:100be0004211dd00028141000089be00ce1090005c
:100bf0001e0078004200dd00008040001000be00b2
:100c00000001be000e0890009e0890009c050700a1
:100c1000000f9800110f98001e0fe8004e50900032
:100c20000000fb009e0f500075ff3c004e1090002e
:100c30001001be0042079800530798004e10900024
:100c40001001be0062079800730798000000eb00d7
:100c5000000f78002b003700ce1090001e007800a7
:100c60004200dd00008040001000be0018c0b3004c
:100c70004e019000de0190008b0607000000e000ae
:100c800001003c000044eb000804e00007003200d3
:100c9000ce1090001e0078004200dd000080400071
:100ca0001001be004207980053079800ce10900034
:100cb0001e0078004200dd00008040001000be00f1
:100cc00018c0b3006e019000fe019000740607008a
:100cd0000000e000010035000044eb000804e000e3
:100ce00007003200ce1090001e0078004200dd00a8
:100cf000008040001001be00620798007307980052
:100d00001e0fe8004e5090000000fb009e0f5000a8
:100d1000d1ff3c004e019000de0190000e089000d3
:100d20009e089000550507006e019000fe0190009e
:100d3000520507000004be004e5090000000fb006a
:100d40000080e900cf80de007a0607000001be00c7
:100d50000800be0010060700000f9800110f980051
:100d6000b0db8400c1db84000e0990009e09900076
:100d7000c80607000002be00d0db8400e1db84006f
:100d80000001be000400be000306070050179800d3
:100d900061179800f0db840001dc84000001be00d4
:100da0005e109000ee109000fb0507007017980091
:100db000011f980010dc840021dc840018c0b300ff
:100dc0000001be007e1090008e18900036060700cd
:100dd0000000e00001003d000044eb000804e000da
:100de0002700320010dc840021dc84007e1190009a
:100df0008e199000210507000005be0010dc84005c
:100e000021dc84003e099000ce099000a106070075
:100e10000004be0010dc840021dc84005e09900028
:100e2000ee0990009b0607000a02be000801be0002
:100e300056000700004088001140880000408000f4
:100e400011408000020020000312240091060700d8
:100e500017060700800078000071220080017800ea
:100e6000110009008300d8008000fd00cf80de0063
:100e70003006070000408800114088003400370029
:100e800010dc840021dc84007e1190008e1990001b
:100e9000fa0407000006be0010dc840021dc840098
:100ea0003e099000ce0990007a0607000005be00ba
:100eb00010dc840021dc84005e099000ee099000c3
:100ec000740607000004be0010dc840021dc8400ee
:100ed00002002000832c2c006e0607007e09900083
:100ee0008e1190006b0607008c9fbe000a03be00a7
:100ef0000802be000001be007e0890008e10900027
:100f00008f000700e48757000040880011408800e8
:100f100000408000114080000200200003122400e5
:100f20005c060700e20507008000780000712200df
:100f300000017800110009008200d8008000fd0047
:100f4000cf80de00fb0507000040880011408800cc
:100f500000192000f8fd07009e1f9000ae1f9000b2
:100f60004f06be004f05be004f04be000080fa00d1
:100f7000000006000000fa000080fa0000000600f1
:100f80000000fa000080fa00000006001400fa00d9
:100f9000889fbe004007980051079800620798009c
:100fa00073079800040f9800150f98006e019000c9
:100fb000fe0190006e009000fe00900035060700d4
:100fc0000004be0002002000030824004e00900030
:100fd000de0090002f0607000e0990009e09900089
:100fe0002c0607000001be000800be00a304070095
:100ff00020079800310798006000b800008fbe00fd
:1010000018c0b3006011b8002e009000be00900020
:10101000a30507000000e000010035000044eb00dc
:101020000804e0000400320000c02300c161240075
:10103000008fbe003e0037006011b8002e00900007
:10104000be009000960507000000e0000d003a0089
:101050006e009000fe0090000004be0009f0a200a7
:101060004e009000de0090000001be0084040700e6
:101070000001be000800be0047050700008fbe004b
:101080002b0037002e009000be0090008307070061
:101090006e019000fe019000780407000004be007d
:1010a0004e009000de0090000001be0074040700b6
:1010b0000001be000800be0037050700008fbe001b
:1010c00018c0b3006011b8001e00be007405070010
:1010d0000000e000010035000044eb000804e000df
:1010e000130032006e009000fe0090000004be006d
:1010f00009f0a2002e009000be00900067070700d4
:101100000001be000800be005c0407000004be0031
:101110004e009000de0090000001be005804070061
:101120000001be000800be001b050700008fbe00c6
:101130001e00be004f04be000080fa000000060042
:10114000a000fa00889fbe008a9fbe008c9fbe0050
:101150006087980071879800028f9800138f98001d
:10116000248f9800358f9800468f9800578f9800ed
:101170006000b800008fbe006000b800000f98004b
:10118000110f98006000b800200f9800310f9800f0
:101190006000b800400f9800510f98006000b80040
:1011a000600f9800710f98006000b8000017980059
:1011b000111798006000b8002017980031179800a8
:1011c0006000b80040179800511798006e81900099
:1011d000fe8190006e809000fe809000ee0407007b
:1011e00060179800711798006e819000fe81900042
:1011f0000e8890009e889000e7040700001f98006a
:10120000111f98006e819000fe8190002e88900042
:10121000be889000e0040700201f9800311f98004e
:101220006e819000fe8190004e889000de889000d4
:10123000d9040700401f9800511f98006e8190004c
:10124000fe8190003eb89700ceb89700d204070008
:10125000601f9800711f98006000b8000027980078
:10126000112798006000b800200798003107980007
:101270006000b80020279800312798006000b8006f
:1012800040279800512798006000b8006027980018
:10129000712798006000b800002f9800112f980067
:1012a0006000b800202f9800312f98006000b8002f
:1012b000402f9800512f98006000b800602f9800d0
:1012c000712f98006000b80000379800113798001f
:1012d0006000b80020379800313798006000b800ef
:1012e00040379800513798006000b8006037980088
:1012f000713798006000b800003f9800113f9800d7
:101300006000b800203f9800313f98006000b800ae
:10131000403f9800513f98006000b800603f98003f
:10132000713f98006000b80040079800510798008e
:101330006000b80060079800710798006000b8006e
:1013400000879800118798006000b80020879800f7
:10135000318798006000b800408798005187980056
:101360004e889000de8890000001be00490507000d
:101370000004be002e889000be8890000001be00d0
:10138000440507000001be000800be00410507003b
:101390000004be000e8890009e8890000001be00f0
:1013a0003c0507000001be000800be00390507002b
:1013b0000004be0002002000030424004e889000b8
:1013c000de88900067050700020020000308240063
:1013d000300507000005be000200200003042400c1
:1013e0000e8890009e8890005e0507000001be00f8
:1013f0000a00be00270507000001be000800be006d
:101400009e0307000004be00020020000300240029
:101410004e889000de8890005205070002002000f0
:10142000030824001b0507000005be000200200081
:10143000030424002e889000be8890004905070010
:101440000001be000a00be00120507006e81900078
:10145000fe8190000f0507000001be000800be00dd
:10146000860307000004be000200200003042400dd
:101470004e889000de8890003a05070002002000a8
:1014800003192400030507006e819000fe8190007f
:10149000000507000e8990009e899000fd0407005a
:1014a0002e899000be899000fa0407000001be005a
:1014b0000800be00720307000004be000200200006
:1014c000030824004e889000de8890002505070060
:1014d00002002000831d2400ee0407000005be006a
:1014e00002002000030024006e809000fe80900027
:1014f0001c0507000001be000a00be00e50407004d
:101500000001be000800be005c0307000004be002e
:1015100002002000030424003eb89700ceb89700d4
:10152000100507000200200003382400d90407003a
:101530000005be0002002000030424006e8090001d
:10154000fe809000070507000001be000a00be00f3
:10155000d00407000001be000800be0048030700d9
:101560000004be0002002000030424002e88900026
:10157000be889000fb0407000200200003082c0036
:10158000c40407000005be00020020000300240080
:101590000e8890009e889000f20407000001be00b3
:1015a0000a00be00bb0407000005be0002002000c8
:1015b000031924004e889000de889000b5040700cf
:1015c0002e899000be899000b20407000006be007c
:1015d00002002000030424000e8890009e889000e2
:1015e000e00407000001be000c00be00a9040700d3
:1015f0000001be000a00be00210307000005be0076
:1016000002002000030824002e889000be8890006d
:10161000d404070002002000031824009d040700e2
:101620006e819000fe8190009a0407000001be00c8
:101630000a00be00120307000005be0002002000e1
:10164000030024002e889000be889000c504070087
:1016500002002000032a24008e0407004e89900017
:10166000de8990008b0407000e8990009e8990000f
:10167000880407006e819000fe81900085040700b9
:101680000001be000a00be00fc0207000005be000b
:1016900002002000030024004e889000de889000a5
:1016a000b004070002002000030c240079040700a6
:1016b0000006be0002002000030024000e889000f7
:1016c0009e889000a70407000001be000c00be0029
:1016d000700407006e819000fe8190006d04070089
:1016e0000001be000a00be00e40207000005be00c3
:1016f00002002000030024004e889000de88900045
:101700009804070002002000033124006104070050
:101710000006be0002002000030024006e8090003e
:10172000fe8090008f0407000001be000c00be0088
:10173000580407002e899000be89900055040700c8
:101740000001be000a00be00cd0207003eb99700ae
:10175000ceb997004f0407000001be000800be008c
:10176000c70207000004be0002002000030024009e
:101770003eb89700ceb897007a0407000005be0077
:1017800002002000030824000e8890009e8890002c
:101790007404070002002000831d2c003d04070094
:1017a0000006be0002002000030024000e88900006
:1017b0009e8890006b040700020020000331240083
:1017c000340407002e899000be8990003104070080
:1017d0006e819000fe8190002e0407000001be0083
:1017e0000c00be00a60207000006be00020020009a
:1017f000030024002e889000be8890005904070042
:101800000200200003302400220407000001be0073
:10181000628f9800738f980002002000030024005c
:101820006e809000fe8090004e0407000001be0014
:101830006e889000fe889000160407000001be002c
:101840000c00be008d0207000006be000200200052
:10185000030024006e809000fe8090004104070089
:1018600002002000033424000a0407004e8990007f
:10187000de899000070407000e8990009e89900081
:10188000040407000001be000c00be007b0207003c
:101890000001be000a00be00fe0307000001be00fa
:1018a0000800be0076020700408798005187980024
:1018b00018c0b3006011b8004e809000de80900028
:1018c000770307000000e000010035000044eb0052
:1018d0000804e0000400320000c02300c1612400bd
:1018e000008fbe00dd01370018c0b3006011b800e2
:1018f0004e809000de8090006b0307000000e00047
:1019000001003d000044eb000804e000d301320078
:1019100002002000030024000e1890009e18900082
:10192000100407000200200003042400d90307006c
:101930000200200003102400170307000001be006e
:101940002e189000be1890004c0207000027980047
:101950001127980002002000030424000e189000b4
:101960009e189000ff0307000200200003102400cf
:10197000090307004e199000de199000400207008d
:101980000004be002e199000be1990000e189000a1
:101990009e189000bf0307000200200003002400ef
:1019a000fd0207000001be000800be003302070070
:1019b0002007980031079800020020000308240047
:1019c0000e1890009e189000e60307000200200009
:1019d00003042400af0307000200200003382400a2
:1019e000ed0207000001be006e189000fe18900086
:1019f000220207000004be000200200003002400b1
:101a00000e1890009e189000d60307002e19900023
:101a1000be1990009f030700020020000318240055
:101a2000dd0207000001be000800be00140207002e
:101a30000004be004e199000de1990000e189000b0
:101a40009e18900093030700020020000308240062
:101a5000d10207000001be000800be000702070017
:101a600020279800312798000000200001f823006b
:101a7000402798005127980002002000030024000e
:101a80000e2090009e209000c3020700602798005f
:101a90007127980002002000030024000e2090000f
:101aa0009e209000af0307000004be00020020004b
:101ab000030824002e209000be209000750307002c
:101ac0000001be000800be00ec010700020020007b
:101ad00003182400b0020700002f9800112f98006f
:101ae00002002000030024002e009000be009000a1
:101af0009c03070001f0a20002002000032824003c
:101b0000a5020700202f9800312f98000200200026
:101b1000030424000e2890009e2890005d03070017
:101b20004e219000de2190009b0207000004be00c1
:101b300002002000030024006e209000fe20900090
:101b4000880307000005be000200200003002400f7
:101b50004e209000de209000820307000001be00ae
:101b60000a00be008c0207000001be000800be0093
:101b7000c2010700020020000304240086020700bf
:101b8000402f9800512f98000200200003042400e9
:101b90006e209000fe209000720307000001be003e
:101ba000b70107000004be00020020000304240067
:101bb0004e209000de2090006a0307000001be0066
:101bc0000800be00740207000004be0002002000ee
:101bd000031124006e209000fe2090002d030700ca
:101be0000e2990009e2990002a0307000005be00e0
:101bf00002002000030024004e209000de20900010
:101c0000580307000001be000a00be006202070080
:101c10000001be000800be00980107000004be00dd
:101c200002002000831d24002e289000be28900072
:101c3000180307004e219000de2190005602070095
:101c40000001be000800be008d0107000200200058
:101c5000831d240050020700602f9800712f980008
:101c600002002000030024006e289000fe2890004f
:101c70003c0307000200200003082400460207007e
:101c80000004be0002002000030424004e2890003f
:101c9000de2890003303070002002000831d24008b
:101ca0003d0207000001be000800be0074010700ed
:101cb000003798001137980002002000030024002c
:101cc0006e289000fe2890002603070002002000e6
:101cd00003082400300207000e3190009e3190006e
:101ce000660107006d04070020379800313798001f
:101cf0000000200001f82300403798005137980079
:101d00002e309000be3090000001be005c01070044
:101d10000001be006e289000fe2890001e02070001
:101d200001f0a20053010700603798007137980056
:101d30004e309000de30900001f0a200003f98008d
:101d4000113f980002002000030424006e30900030
:101d5000fe309000100207000d020700203f98009f
:101d6000313f980002002000030424006e309000f0
:101d7000fe3090000802070046040700723d2b0069
:101d8000d3fd2300c3020700403f9800513f980055
:101d900002002000030424004e209000de2090006a
:101da000bc0207000001be006e209000fe209000e3
:101db000f901070001f0a200603f9800713f980010
:101dc0004e309000de3090000001be002c01070074
:101dd0000004be0002002000030424006e309000c6
:101de000fe309000ec010700e90107000001be0091
:101df0000800be00a70207000004be000200200089
:101e0000030424004e209000de209000a102070071
:101e10000001be006e209000fe209000de01070051
:101e20000001be000800be00140107000017980062
:101e3000111798004e399000de3990002e3890002e
:101e4000be3890000e0107000e3990009e399000b8
:101e5000900207006e399000fe39900008010700db
:101e600020179800311798004e399000de39900005
:101e70002e389000be389000000107000e39900007
:101e80009e399000830207006e399000fe39900061
:101e9000fb00070040179800511798000e119000a2
:101ea0009e1190000e1090009e1090007902070085
:101eb0000004be002e119000be1190002e10900064
:101ec000be109000730207001ac0b3000001be00ec
:101ed0000800be00f20107000000e000010035002c
:101ee0000045eb000a04e0001f0032000e119000d4
:101ef0009e1190000e1090009e1090006502070049
:101f00000004be004e119000de1190004e109000b3
:101f1000de1090005f0207001ac0b3000001be008f
:101f20000800be00de0107000000e00001003500ef
:101f30000045eb000a04e0000b0032002e10900078
:101f4000be109000d5030700400798005107980085
:101f50004e109000de109000d0030700600798003c
:101f6000710798003d0037002e119000be119000bf
:101f70002e109000be109000460207000004be0024
:101f80000e1190009e1190000e1090009e10900077
:101f9000400207001ac0b3000001be000800be00e6
:101fa000bf0107000000e000010035000045eb0024
:101fb0000a04e0001f0032002e119000be119000b4
:101fc0002e109000be109000320207000004be00e8
:101fd0004e119000de1190004e109000de10900027
:101fe0002c0207001ac0b3000001be000800be00aa
:101ff000ab0107000000e000010035000045eb00e8
:102000000a04e0000b0032000e1090009e109000b9
:10201000a203070040079800510798004e10900057
:10202000de1090009d03070060079800710798007c
:102030000a0037000e1090009e10900097030700d2
:1020400040079800510798002e109000be10900095
:102050009203070060079800710798002e00900017
:10206000be0090000004be0009f0a20002002000a3
:10207000031024004e009000de00900005020700cf
:102080006e019000fe019000020207000001be00f8
:102090000800be00400107000087980011879800e3
:1020a00002002000030824006e109000fe10900033
:1020b000f80107000001be000e1890009e18900065
:1020c0003501070020879800318798006e01900045
:1020d000fe0190004e009000de00900068000700b6
:1020e0000e8190009e819000650007002e81900077
:1020f000be81900061000700000f9800110f98004a
:102100006e019000fe0190004e009000de009000f5
:102110005a0007000e8190009e8190005700070032
:102120002e819000be81900054000700200f98007f
:10213000310f98004e019000de0190006e0090007b
:10214000fe0090004d0007000e8190009e819000df
:102150004a0007002e819000be81900047000700d2
:10216000400f9800510f98004e009000de00900044
:1021700001f0a2006e019000fe0190003f000700f8
:102180000e8190009e8190003d0007002e819000fe
:10219000be81900039000700600f9800710f980011
:1021a00018c0b3006011b8000e0890009e0890009f
:1021b0003b0107000000e000010035000044eb0097
:1021c0000804e000040032000e0990009e0990000f
:1021d000028fbe001f00370018c0b3006011b800a6
:1021e0002e089000be0890002d0107000000e000be
:1021f000010035000044eb000804e0000400320058
:102200002e099000be099000028fbe001100370019
:1022100018c0b3006011b8004e089000de089000ae
:102220001f0107000000e000010035000044eb0042
:102230000804e000040032004e099000de0990001e
:10224000028fbe00030037006e099000fe09900067
:10225000028fbe001e00be004f06be004f05be002e
:102260004f04be000080fa00000006000040da00c3
:102270000000fe00320020005e00370003f0a200e4
:10228000889fbe008a9fbe008c1f780069010700ee
:10229000700133006450e1004f0032006420e1001f
:1022a0005200320003826c0007003b000905d00099
:1022b0000306d000820f54000c065d0002003900b6
:1022c00002003200890178000306780085825500fb
:1022d00004003d000003fd008103fd008502ea00cb
:1022e0008b854200840f720002003b0060001000ea
:1022f000e08018006011b8000005eb007a28e100ca
:102300000a00390006007800c75ddd00f707b2005b
:10231000878075002d003700828171000a017800e6
:10232000610560008180d1000080d3008502e90052
:10233000f9ff3b00060440008784480002003b0090
:1023400060041400e0841c000988a3000700320028
:102350008a81710082817100610164008904d10069
:102360000884d3008b05e800170037000978a30024
:1023700013003a000b00e000130034008b05e90065
:102380000804440089844c000a4474000978a300be
:102390000d003a000b00e000070034008b05e90057
:1023a0000804440089844c0001003a000b0020001e
:1023b0000978a300f7ff32000001eb0002003700ac
:1023c000828171000a017800df0007000cf0a7008d
:1023d00001f0a000280137006420e10002003a006b
:1023e000838f6c00280133000801be000200be008c
:1023f00021013700889fbe008a9fbe008c9fbe00cf
:102400000206780001f0a7000cf0a0000004be0056
:10241000f30007000800be006420e1000700390057
:1024200002003a00f1ff2700f0ff2f000160a0003a
:1024300012022000224088005100370009f0a1005c
:102440000800be000200200003f8230096000700e9
:10245000f4ff3c000800be000200200003982300a7
:102460008f0007000800be00300035000200200089
:1024700003f023008c00070005003c000800be00ac
:102480000801be00030107000005be000e00370072
:102490000c10a2000000200001f823000801be007b
:1024a00076ff07000200200003f02300f900070078
:1024b0000005be00790207000200200003002c0086
:1024c000f40007000004be000a00be00b2d02800dd
:1024d000130b2c006aff07000a01be00ed00070085
:1024e000020f2500330b240065ff0700809fbe000c
:1024f0000a00be005206220013f02b00e500070080
:10250000b2662100f3f623005dff07000a01be005a
:10251000e00007004f01be001f0007000801be00d9
:10252000dc0007000801be0055ff07000c00a700f3
:1025300007003700b2fd200093fc23000c10a70019
:102540004fff07000cf0a70001f0a2000c003700bd
:102550000cf0a7000200370001f0a20004003700d1
:10256000b2fd2000930424000c10a60003003700e5
:10257000b2fd200093fc23000c10a70040ff0700d1
:102580004f06be004f05be004f04be00000006000f
:102590000081eb00d6013700889fbe008a9fbe00f5
:1025a0008c1f7800a3000700aa00330003866c008c
:1025b0006450e1002e0032006420e100330032005c
:1025c0006150e1002f0032006120e1003100320053
:1025d00085855500eb07b0000900200008042000a5
:1025e000050037000804440089844c000a003100cb
:1025f0000603430087834b000001530081815b0089
:10260000f8ff33000203be000800a00008044400e5
:1026100089844c00f6ff3900c639dd008301730060
:1026200001003200130020008904d1000884d30087
:102630000998a300050032000800a7000300a000cd
:102640008904d1000884d3008b05e8008904d100f7
:102650000884d3000001eb000281d2003a00070099
:1026600001f0a1000cf0a70001f0a00082003700eb
:102670006420e100840032000801be000200be00b8
:10268000f7ff37006120e1007f0032006000b800f2
:10269000f3ff37000000200001f82700f0ff3700ab
:1026a00014002000c8023700f4ff2f00c6023700d4
:1026b0000001be004a0007000470a70003f0a1005b
:1026c0006509b100160032000d0035006828e100f0
:1026d00006003500f0ff2f00f1ff27000300e000a7
:1026e00013003b000100280000000500000040002e
:1026f000818048008502e900fcff3a0008003700ad
:10270000f88f420002003c008000eb000000050052
:102710008100d1000080d3008502e800fcff3a0070
:102720000300e00002003b0060001000e0801800a1
:10273000000006004f89de0082017800bd023700ec
:102740006011b800cb023700810020006180550085
:102750000b003d000b00200061fe2f000100e10096
:102760001d00340082817100610164008904d10080
:102770000884d3000000e800faff3a00710020004e
:102780006100640003007000020060000900320074
:1027900061044400e0844c000988a5000500320073
:1027a0008b05e8006808e10002003a008904d100c6
:1027b0000884d300f20f20000258e10005003d001c
:1027c000c75ddd00f907b200898075000800780058
:1027d000000006000bf827008b00780000000500c1
:1027e000c70ade00f107b200f50fb20008003200a0
:1027f000e1cf4200020032000170a0002400050079
:10280000810f70000100320004080500440005003b
:10281000810f700002003a00140005008502e900f3
:102820000000400081c04800fcff3b000170a00098
:10283000240005000004be00e9ff07000003be00fd
:102840000405be000200be00e5ff0700844f7500ce
:10285000000006000200be006450e10005003600e2
:102860006420e100020036000968a30001003a007c
:102870000800be000160a0004f0678004f05be00b2
:102880004f04be0000000600f0ff2f00f1ff2700fc
:10289000f9ff3700889fbe008a9fbe008c1f78001a
:1028a000e4ff0700ebff330003866c006450e10097
:1028b000240032006420e100270032006150e10072
:1028c000220032006120e100210032008b854200ad
:1028d000eb07b1000134b800003ab8000804420028
:1028e00089844a00013ab8000030b800888040006e
:1028f00009014a00040033000000400081804800c4
:10290000020149008b05e900c909dd00830170005f
:102910000100320013002000c814de004814dd005e
:102920004709de001200b200c808de00088470000b
:1029300085ff070001f0a1000cf0a70001f0a00046
:10294000cdff37006120e100cfff32000801be005b
:102950000200be00f7ff37006150e100fcff3a00c3
:10296000c9ff37000c00fa00889fbe008a9fbe0096
:102970008c9fbe00afff07000206be0084057800f2
:102980000200be0002002000e801070005003a0036
:102990008b02b30012002000e401070001003a009e
:1029a000f8856d000c01be00c60007000800be00df
:1029b0009b0032000b08a3009e003a000df0a70018
:1029c0000be0a00009f0a7000bf0a00009f0a100a7
:1029d0000801be00bb0007000bf0a6009500320006
:1029e00001003c000bd0a0008acf7500b20033007c
:1029f0006000b8006250e10099003900a1003e007b
:102a00000b28a300a2003a000bf8a3000600320036
:102a10000b58a300a70032000801be00a900070060
:102a20000800be00940032000800be0050010700fc
:102a30000004be00050578000bf0a7000b30a600cf
:102a40000bf0a1005b079800324f200053f32300e6
:102a500013ff070005003d000800be001200200023
:102a6000840207000004be000a05e9004a07980036
:102a70006150b9002fff0700008fbe000c01be009f
:102a800084ff07000aff0700300798000100e000fc
:102a900002003d0060001000e0801800f2ff2700f7
:102aa000820f5000e08f580064003e000c00be0012
:102ab000fffe070020079800f2072000820f500059
:102ac000e08f580005003c0012f82f00f3ff2f00a4
:102ad000820f5000838f580009003d000a00e0007b
:102ae0000300320001003c000201ea000205780008
:102af0006000b800200798003a07980019003700d6
:102b00003e0090006100b9000aff0700809fbe00f0
:102b10000c00be004109dd004811de007208b10062
:102b2000820107000005be001e01be0059ff07001c
:102b30004f01be00d1fd0700809fbe000c00be000b
:102b40000a01be00cdfd07001e01be0051ff0700b7
:102b50004f01be00cafd07008221270013f32300a6
:102b60004cff07000005be002e0090006100b90078
:102b7000f0fe070001f0a2000c01be00c0fd07003e
:102b80000006be000800be005c0207000c01be008b
:102b900040ff07000a01be00b9fd0700809fbe008c
:102ba0004a0007002e0590000af0a7000a05ea0077
:102bb000050037000800be000801be0035ff070011
:102bc0000004be000c00be000801be000a00a70001
:102bd00030ff07000006be000a05d100f5ff3a00ed
:102be0005e01900002e0a600030037000001be0075
:102bf0003600070068fe07000004be004f00be005c
:102c0000e80007000801be0022ff07003e01900017
:102c100018020700de0590000bf0a70001f0a200eb
:102c20004f06be004f05be004f04be000080fa00f4
:102c30000000060025000700f9ff37002700070005
:102c40006000b8000bd0a7000bc0a0000be0a700ed
:102c50000bc0a2000bc0a70001f82700f0ff37004f
:102c60000df8a300020032001e0007001900070043
:102c70000bf8a300eaff32000b30a70001f0a2001e
:102c8000e7ff37000df8a300f9ff3a00f7ff370020
:102c90000801be000b000700e6ff320001003c0007
:102ca0000df0a2006000b8000df0a70009000700b9
:102cb000dbff37000b000700f1ff2700f0ff2f00bc
:102cc000d7ff37000100070075fe370001f8230029
:102cd0000000050001f82700000005002002200088
:102ce000010037001002200020408800000006008c
:102cf000889fbe008a9fbe008c9fbe008205780020
:102d00000004be00b6fe07000800be006420e1001b
:102d10000700390002003a00f1ff2700f0ff2f0002
:102d20000160a000120220002240880055003700f8
:102d30006120e10003003a000b00a70001f8230026
:102d40005000370001f0a10002002100936424002c
:102d500053fe07000800be0004003500b2fd20004d
:102d6000930c2400720107000004be000005eb0074
:102d70000b00a6004f0dde0001f0a1000004be0014
:102d800032982f0023ea2300c2fe07000001eb0067
:102d900003f023000b00a70003f8230038fd070011
:102da00043fe07000000a7000a00a20061fe070022
:102db0000b00e000030032000200200003f02300bb
:102dc0002efd070001f0a2000006be000200200058
:102dd00093042400affe07000801be0028fd070091
:102de000809fbe000c00be0022a22a00d3a72300b1
:102df000a8fe07004f01be0021fd07000004be0031
:102e000001f0a100020020000398230024fe070027
:102e10000800be00190035000001be009dfe07003d
:102e20000006be00b2c52900e362230099fe070038
:102e300022222b00f3942b0011fd07000c01be0091
:102e400094fe0700e273280083c023000cfd0700f6
:102e50000c01be008ffe070042aa2a00a3e22b004d
:102e600007fd07000c01be008afe07000801be0036
:102e700088fe07000801be0001fd07000a00a70048
:102e800001f0a2004f06be004f05be004f04be0079
:102e9000000006000001eb0095ff3700889fbe0090
:102ea0008a9fbe008c1f78000004be004cfe070005
:102eb0000478a30026003a006120e10025003200da
:102ec00009f8a30025003a006420e1002100320047
:102ed000f507b1000508a300020032000000400021
:102ee000818048006044b8000310200002002000e8
:102ef00000004000818048000805440089854c009e
:102f00000a0541008b8549000a0550008b85580051
:102f1000030033000a00be000204740083847400be
:102f20008301d1000281d300830f7100f0ff3a00ca
:102f30008904d1000884d30060014900820178002f
:102f4000c1adde00fb07b000fffd07004afe370001
:102f50000960a0000800be0047fe370012022000f2
:102f600022408800f0ff2f00f1ff270042fe3700cb
:102f70000003be001afe07006220e10002003200da
:102f80000600be0005000500e507b100f107b2002c
:102f900004f023008480700007f0a70001f0a00077
:102fa00024000500889fbe008a9fbe008c9fbe0043
:102fb0000004be000afe07000800be006420e10015
:102fc00048003e005500320072212700132b2400d8
:102fd000b5fd070047003c000800be00c2ec280019
:102fe000e32c2c00aefd0700470035000800be00b2
:102ff00001f0a1000200200003382300a8fd070013
:10300000430035000800be00b2a32a0083fb230062
:1030100020fe07000200200003f0230001f0a700bb
:1030200003f0a00096fc0700a1fd07000005be000c
:10303000c0fd070001f0a2000006be00020028004b
:1030400013f3230013fe07000801be008cfc0700e9
:10305000809fbe000c00be0032082800e3952b00c4
:103060000cfe07004f01be0085fc07000006be00f5
:103070000001be0007fe0700809fbe004241250000
:1030800083b8230003fe07000200200003e82300aa
:103090007bfc07000c01be00fefd07000006be0021
:1030a0004f00be00f2f92b00c3d42300f9fd070046
:1030b0000200200003f0230071fc07000c01be0099
:1030c0006efc07000001be000c00be0032fd0700d0
:1030d0000200200003f0230069fc070061014500a5
:1030e000e40007004f06be004f05be004f04be00bf
:1030f0000000060001f82700000020002202200046
:1031000022408800f7ff37006000b800fbff37005f
:1031100001f8230000002000f2ff370009f8a300a7
:10312000f0ff32006000b800eeff3700889fbe005d
:103130008a9fbe000003be00a9fd07008505780038
:1031400082815200020020006220e10004003a0067
:10315000f307b100040035007718e10004003500e2
:103160000600be00140037006000b8000f003700f2
:10317000f50f2000faff2f008502d1000a85d30049
:103180008301e900fcff3b008184620000046500cc
:10319000890f7400f2ff32008582ea000a85ea0096
:1031a000818462000004650067fd070007f0a70046
:1031b00001f0a0000081eb000200e0004f05be001e
:1031c0004f04be0000000600889fbe008a9fbe001c
:1031d000841f780097fd07004f007800110033002e
:1031e000f0ff2f00838f6c0006003b000405650094
:1031f0000a00a7000800370009f0a6001000200010
:1032000008003700820f5400838f5c0003003900f0
:103210001000200001003e000000200009f0a7007f
:103220000000ea004f05be004f04be000000e000b1
:1032300000000600881f7800030478000300e00007
:1032400007003d0060001000e080180060011900d8
:10325000e081190002003b0001f02d00030037005f
:103260000400070008f0a70001f0a0004f04780058
:1032700000000600889fbe008a9fbe00008270008a
:103280000402710004827100260032000004be00b6
:103290000200be006011b8006b09200095022000fa
:1032a0000182cf000a0039000541b1000082cf0041
:1032b000070039000541b1000982cf000400390040
:1032c0000541b1000882cf00010039000541b1007d
:1032d00005425200120032000a003b008281710058
:1032e000610164008100d1000080d3008984d30093
:1032f0000884d3008b05e8000442e800f7ff3a0099
:10330000070037000804440089844c00000048008e
:10331000818048008b05e9000442e900f9ff3a008a
:1033200009fd07004f05be004f04be000000060067
:103330000400200000003700889fbe008a9fbe0066
:103340008c1f78004f26dd003afd070041fd330059
:103350006120e100430032006250e10041003e0084
:103360003e0039006420e1003c0032000582550037
:103370000f003b000402e80038003a00800f5300c1
:10338000818f5b00350034000800be0003f0a1000f
:1033900001f0a60003f0a0000cf0a700b8fb0700a6
:1033a00035fd37000603430087834b000c4646007b
:1033b0000005530081855b00020033000a03be0054
:1033c0000c00a0000402e900f6ff3b008505780030
:1033d0000602430087824b0004003a006000b800f8
:1033e00009f0a70001f0a00023fd37000002520001
:1033f00081825a000704e000040033000603430002
:1034000087834b008b05e900faff37000905780038
:103410000604be000203be006011b800cafc07002b
:10342000e00f5200e08f5a000700350002003c0018
:103430000c08a300040032000601be0003f0a00047
:103440000cf0a7008efb07000a85680001f0a100c0
:103450000af0a70001f0a00007fd37000800be0039
:1034600005fd3700100220000cf0a6002040880067
:1034700005fd37000003be00d9fc07006220e10013
:10348000020032000600be00000006008502410076
:10349000e30f20000328e10005003c00a3fe2f00fd
:1034a0000328e10007003d0005002000010037006f
:1034b000f50f200020022000204088006000b800a6
:1034c00008003700130020008381520005003d00f2
:1034d0008100d1000080d3008301e800fcff3a00a6
:1034e00005002000c72add00f107b20085807000ca
:1034f00007f0a70001f0a00000000600889fbe00b2
:103500008a9fbe008c9fbe0099fe0700850478004c
:103510000005be006420e10049003e006220e10099
:1035200003003200090035000bf8a300440032000c
:103530000bf8a30008003200100220002040880091
:10354000f0ff2f00f1ff27003d00370001f82f00aa
:10355000000020003a0037003d00070047fb07004d
:103560000006be000a00be00324f200053f32300c5
:103570004dfc0700060034000c00be0034000700bc
:103580003efb07000006be000a00be000200370036
:103590008904e9000c00be002d000700bdfc0700f7
:1035a0002b00070036fb07000001be000c00be0028
:1035b000f9fb07000005be000001be00b5fc0700d6
:1035c0000006be00a2f32300430d2c002cfb0700d5
:1035d000809fbe000c00be00d2e32700d3f02b007a
:1035e000acfc07004f01be00ebfb07000006be006d
:1035f0000a01be00a7fc07000a01be0020fb07006d
:103600000006be006148b9004afc07000005be0084
:1036100032082800e3952b009efc07000c01be0039
:1036200017fb07000006be000a00be0002002800cb
:1036300013f3230097fc07000c01be0010fb0700ea
:103640004f06be004f05be004f04be00000006003e
:0836500003f023000200050055
:020000040000fa
:1036580000c0000000f9000000a4000000b0000055
:1036680000990000009200000082000000d80000cd
:103678000080000000900000008800000083000027
:1036880000a7000000a1000000860000008e0000d6
:1036980000c200000089000000cf000000e1000027
:1036a8000085000000c7000000aa000000ab000071
:1036b80000a30000008c00000098000000af00008c
:1036c800009200000087000000e300000081000075
:1036d8000095000000c900000091000000b600003d
:1036e800ff7f000033330000533a00000000000061
:1036f800e04000006f120000833a00000000000064
:04370800c8420000b3
:020000040000fa
:10370c000008000004000000000000000408000095
:0c371c000200000000000000941b800070
:020000040000fa
:04372800000000009d
:020000040000fa
:0200000401f009
:04000000ffff0000fe
:020000040000fa
:0200000401f009
:04000800ffff0000f6
:020000040000fa
:0200000401f009
:04000c00daff000017
:020000040000fa
:0200000401f009
:04001000b0ff00003d
:020000040000fa
:0200000401f009
:0400140048ff0000a1
:020000040000fa
:0200000401f009
:04001800fcff0000e9
:020000040000fa
:0200000401f009
:04001c00ffff0000e2
:020000040000fa
:0200000401f009
:040020003fff00009e
:00000001FF
